{
  "transactions": [
    {
      "hash": "0x27570f276463de75f8397fd2ac2550eef49aa6eade4c7a711329c003b481bc92",
      "transactionType": "CALL",
      "contractName": null,
      "contractAddress": "0xb70f39b413165f456518484f33f77a386a71ed97",
      "function": "setTreasury(address)",
      "arguments": [
        "0xa0D5aA61d273688e613bA08A931f6047298F8364"
      ],
      "transaction": {
        "from": "0xa0d5aa61d273688e613ba08a931f6047298f8364",
        "to": "0xb70f39b413165f456518484f33f77a386a71ed97",
        "value": "0x0",
        "input": "0xf0f44260000000000000000000000000a0d5aa61d273688e613ba08a931f6047298f8364",
        "nonce": "0xb9",
        "chainId": "0x128"
      },
      "additionalContracts": [],
      "isFixedGasLimit": false
    },
    {
      "hash": "0x5194e73fe6f880e0e4b38b36937cfd41a44518902ab6b911c3a70a10c8cc1b39",
      "transactionType": "CALL",
      "contractName": null,
      "contractAddress": "0xb70f39b413165f456518484f33f77a386a71ed97",
      "function": "setMedqToken(address,address)",
      "arguments": [
        "0x00000000000000000000000000000000006f353d",
        "0x83Dd9f7DFf403AB27A87200bb28789eAA26541f8"
      ],
      "transaction": {
        "from": "0xa0d5aa61d273688e613ba08a931f6047298f8364",
        "to": "0xb70f39b413165f456518484f33f77a386a71ed97",
        "value": "0x0",
        "input": "0x262adacd00000000000000000000000000000000000000000000000000000000006f353d00000000000000000000000083dd9f7dff403ab27a87200bb28789eaa26541f8",
        "nonce": "0xba",
        "chainId": "0x128"
      },
      "additionalContracts": [],
      "isFixedGasLimit": false
    },
    {
      "hash": "0xacfce2bcdece9fc500a543e7945a29fee4f23dcfbfb516a53551e3c8e0f367e3",
      "transactionType": "CALL",
      "contractName": null,
      "contractAddress": "0x83dd9f7dff403ab27a87200bb28789eaa26541f8",
      "function": "setTokenAddress(address)",
      "arguments": [
        "0x00000000000000000000000000000000006f353d"
      ],
      "transaction": {
        "from": "0xa0d5aa61d273688e613ba08a931f6047298f8364",
        "to": "0x83dd9f7dff403ab27a87200bb28789eaa26541f8",
        "value": "0x0",
        "input": "0x26a4e8d200000000000000000000000000000000000000000000000000000000006f353d",
        "nonce": "0xbb",
        "chainId": "0x128"
      },
      "additionalContracts": [],
      "isFixedGasLimit": false
    },
    {
      "hash": "0x510fa646948e799a8ff467118f2da6d95d8219a6b19d5393d71943a62fce70e1",
      "transactionType": "CALL",
      "contractName": null,
      "contractAddress": "0x8f8cfaac6d1dff1e460703a369d88fd0c38792c8",
      "function": "setTokenAddress(address)",
      "arguments": [
        "0x00000000000000000000000000000000006F353E"
      ],
      "transaction": {
        "from": "0xa0d5aa61d273688e613ba08a931f6047298f8364",
        "to": "0x8f8cfaac6d1dff1e460703a369d88fd0c38792c8",
        "value": "0x0",
        "input": "0x26a4e8d200000000000000000000000000000000000000000000000000000000006f353e",
        "nonce": "0xbc",
        "chainId": "0x128"
      },
      "additionalContracts": [],
      "isFixedGasLimit": false
    },
    {
      "hash": "0xa843ceb81cbab2e2909e6f55a6fb754065b4fce2d15da998409e4627c475324f",
      "transactionType": "CALL",
      "contractName": null,
      "contractAddress": "0xb70f39b413165f456518484f33f77a386a71ed97",
      "function": "setBadgeController(address)",
      "arguments": [
        "0x8f8CfaaC6D1DFF1e460703a369D88fd0c38792c8"
      ],
      "transaction": {
        "from": "0xa0d5aa61d273688e613ba08a931f6047298f8364",
        "to": "0xb70f39b413165f456518484f33f77a386a71ed97",
        "value": "0x0",
        "input": "0x8c59ff1f0000000000000000000000008f8cfaac6d1dff1e460703a369d88fd0c38792c8",
        "nonce": "0xbd",
        "chainId": "0x128"
      },
      "additionalContracts": [],
      "isFixedGasLimit": false
    }
  ],
  "receipts": [
    {
      "status": "0x1",
      "cumulativeGasUsed": "0x6bb9",
      "logs": [
        {
          "address": "0xb70f39b413165f456518484f33f77a386a71ed97",
          "topics": [
            "0x7dae230f18360d76a040c81f050aa14eb9d6dc7901b20fc5d855e2a20fe814d1",
            "0x000000000000000000000000a0d5aa61d273688e613ba08a931f6047298f8364"
          ],
          "data": "0x",
          "blockHash": "0xee9a9ef112a0e10fc96956e471a1db2180b7b0a0d24c1a245829409361563408",
          "blockNumber": "0x1a7ab18",
          "blockTimestamp": "0x691e0ee2",
          "transactionHash": "0x27570f276463de75f8397fd2ac2550eef49aa6eade4c7a711329c003b481bc92",
          "transactionIndex": "0x6",
          "logIndex": "0x0",
          "removed": false
        }
      ],
      "logsBloom": "0x00000000000000000000000000000000000000000000000000000000000000000000000000000000000000000000000000000000000000000000000000000000400000000800000000000000000000000000000000000000000000000000000000000000000000000000000000100000000000000000000000000000000010000000000000000000000000000000000000000000010000000000000000000000000000000004000000000000000000000000000000000000001000000000000000000000000000000000000000000000000000000000000000000000000000000000800000000000000000000000000000000000000000000000000100000000",
      "type": "0x2",
      "transactionHash": "0x27570f276463de75f8397fd2ac2550eef49aa6eade4c7a711329c003b481bc92",
      "transactionIndex": "0x6",
      "blockHash": "0xee9a9ef112a0e10fc96956e471a1db2180b7b0a0d24c1a245829409361563408",
      "blockNumber": "0x1a7ab18",
      "gasUsed": "0x6bb9",
      "effectiveGasPrice": "0x8bb2c97000",
      "from": "0xa0d5aa61d273688e613ba08a931f6047298f8364",
      "to": "0xb70f39b413165f456518484f33f77a386a71ed97",
      "contractAddress": "0xb70f39b413165f456518484f33f77a386a71ed97",
      "root": "0x56e81f171bcc55a6ff8345e692c0f86e5b48e01b996cadc001622fb5e363b421"
    },
    {
      "status": "0x1",
      "cumulativeGasUsed": "0x110f6",
      "logs": [
        {
          "address": "0xb70f39b413165f456518484f33f77a386a71ed97",
          "topics": [
            "0xc84717bb98da89a6780a22b6720dbf5910b56664c86f42931e74e04fdecdc95d",
            "0x00000000000000000000000000000000000000000000000000000000006f353d"
          ],
          "data": "0x00000000000000000000000083dd9f7dff403ab27a87200bb28789eaa26541f8",
          "blockHash": "0x96c175a1e8c279027a249992ed30d22a5c5c00ae431bf44e93065cbca1439f1d",
          "blockNumber": "0x1a7ab1b",
          "blockTimestamp": "0x691e0ee8",
          "transactionHash": "0x5194e73fe6f880e0e4b38b36937cfd41a44518902ab6b911c3a70a10c8cc1b39",
          "transactionIndex": "0xe",
          "logIndex": "0x3",
          "removed": false
        }
      ],
      "logsBloom": "0x00000100000000000000000000000000000000000000000000000000000000000000000000000000000000000000000000000000000000000000000000100000000000000800000000000000000000000000000000000000000000000000000000000000000000000000000000000000000000000000000000000000000010000000000100000000000000000000000000000000000000000000000400000000000000000000000000000000000000000000000000000000400000000000000000000000000000000000000000000000000000000000000000000000000000000000800002000000000000000000000000000000000000000000000000000000",
      "type": "0x2",
      "transactionHash": "0x5194e73fe6f880e0e4b38b36937cfd41a44518902ab6b911c3a70a10c8cc1b39",
      "transactionIndex": "0xe",
      "blockHash": "0x96c175a1e8c279027a249992ed30d22a5c5c00ae431bf44e93065cbca1439f1d",
      "blockNumber": "0x1a7ab1b",
      "gasUsed": "0x110f6",
      "effectiveGasPrice": "0x8bb2c97000",
      "from": "0xa0d5aa61d273688e613ba08a931f6047298f8364",
      "to": "0xb70f39b413165f456518484f33f77a386a71ed97",
      "contractAddress": "0xb70f39b413165f456518484f33f77a386a71ed97",
      "root": "0x56e81f171bcc55a6ff8345e692c0f86e5b48e01b996cadc001622fb5e363b421"
    },
    {
      "status": "0x1",
      "cumulativeGasUsed": "0xb7a0",
      "logs": [
        {
          "address": "0x83dd9f7dff403ab27a87200bb28789eaa26541f8",
          "topics": [
            "0xe5b2de23ffed41855538cbd1696544982508fdaf49a5124824e8850c9748f5f4",
            "0x00000000000000000000000000000000000000000000000000000000006f353d"
          ],
          "data": "0x",
          "blockHash": "0x8cf34885e95fd4920115d9d6a43e72aaff3b609b8cb0887399ed8a350d9d2e80",
          "blockNumber": "0x1a7ab1d",
          "blockTimestamp": "0x691e0eed",
          "transactionHash": "0xacfce2bcdece9fc500a543e7945a29fee4f23dcfbfb516a53551e3c8e0f367e3",
          "transactionIndex": "0xa",
          "logIndex": "0x1",
          "removed": false
        }
      ],
      "logsBloom": "0x00000100080000000000000000000000000000000000000000000000000000020000000000000000000000000000000000000000000000000000000000100000000000000000000000000000000000000000000000000000000000000000000000000000080000200000000000000400000000000000000000000000000000000000000100000000000000000000000000000000000000000000000000000000000000000080000000000000000000000000000000000000000000000000000000000000000000000000000000000000000000000000000000000000000000000000000000000000000000000000000000000000000000000000000000000000",
      "type": "0x2",
      "transactionHash": "0xacfce2bcdece9fc500a543e7945a29fee4f23dcfbfb516a53551e3c8e0f367e3",
      "transactionIndex": "0xa",
      "blockHash": "0x8cf34885e95fd4920115d9d6a43e72aaff3b609b8cb0887399ed8a350d9d2e80",
      "blockNumber": "0x1a7ab1d",
      "gasUsed": "0xb7a0",
      "effectiveGasPrice": "0x8bb2c97000",
      "from": "0xa0d5aa61d273688e613ba08a931f6047298f8364",
      "to": "0x83dd9f7dff403ab27a87200bb28789eaa26541f8",
      "contractAddress": "0x83dd9f7dff403ab27a87200bb28789eaa26541f8",
      "root": "0x56e81f171bcc55a6ff8345e692c0f86e5b48e01b996cadc001622fb5e363b421"
    },
    {
      "status": "0x1",
      "cumulativeGasUsed": "0xb78a",
      "logs": [
        {
          "address": "0x8f8cfaac6d1dff1e460703a369d88fd0c38792c8",
          "topics": [
            "0xb88aa2e6118084d1bff267999c605dcb42787e88ddd22c97d611fea3d5365b20",
            "0x00000000000000000000000000000000000000000000000000000000006f353e"
          ],
          "data": "0x",
          "blockHash": "0x4b2f667efbebd75ae112a3b1e414a7cb2d6a3996819c8286b36c8232a2f18624",
          "blockNumber": "0x1a7ab20",
          "blockTimestamp": "0x691e0ef2",
          "transactionHash": "0x510fa646948e799a8ff467118f2da6d95d8219a6b19d5393d71943a62fce70e1",
          "transactionIndex": "0x8",
          "logIndex": "0x4",
          "removed": false
        }
      ],
      "logsBloom": "0x00000000002000000000000000000000000000000000000000000000000000000000000000000000000000000000000000000000000000000000000000000000000000010000000000000000000000000000000000000000000000000001000000000000000000000000000000000000000000000000000000000000000000000020000000000000000000000000000000000000000000000000000000000000000000000000000000000000000000000000000000000000800000000000000000000000000000000000000000000000000400000000000000000000000000000004000000000000000000000000010000000002000000000000000000000000",
      "type": "0x2",
      "transactionHash": "0x510fa646948e799a8ff467118f2da6d95d8219a6b19d5393d71943a62fce70e1",
      "transactionIndex": "0x8",
      "blockHash": "0x4b2f667efbebd75ae112a3b1e414a7cb2d6a3996819c8286b36c8232a2f18624",
      "blockNumber": "0x1a7ab20",
      "gasUsed": "0xb78a",
      "effectiveGasPrice": "0x8bb2c97000",
      "from": "0xa0d5aa61d273688e613ba08a931f6047298f8364",
      "to": "0x8f8cfaac6d1dff1e460703a369d88fd0c38792c8",
      "contractAddress": "0x8f8cfaac6d1dff1e460703a369d88fd0c38792c8",
      "root": "0x56e81f171bcc55a6ff8345e692c0f86e5b48e01b996cadc001622fb5e363b421"
    },
    {
      "status": "0x1",
      "cumulativeGasUsed": "0xb8ea",
      "logs": [
        {
          "address": "0xb70f39b413165f456518484f33f77a386a71ed97",
          "topics": [
            "0xf07bfb098ec43809dc51cc908132c09d3bc5679c647aacb12798bd0f84f21cfa",
            "0x0000000000000000000000008f8cfaac6d1dff1e460703a369d88fd0c38792c8"
          ],
          "data": "0x",
          "blockHash": "0x5cfe2391497116ba217b7e001acda3398caa2132a7a4e284a31aafef04cd277a",
          "blockNumber": "0x1a7ab23",
          "blockTimestamp": "0x691e0ef8",
          "transactionHash": "0xa843ceb81cbab2e2909e6f55a6fb754065b4fce2d15da998409e4627c475324f",
          "transactionIndex": "0x6",
          "logIndex": "0x1",
          "removed": false
        }
      ],
      "logsBloom": "0x00000000000000000000000000000000000800000000000000000000000000000000000000000000000000000000000000000000000000000000000000000000000000000800000000000000000000000000000000000000000000000000000000000000000000000000000400000000000000000000000000000000000010000000000000000000000000000000000000000000000000000000000000000000000000000000000000000000000000000000000000000000000000000000000000000000000000000000000000000000000000000001000000000000000000020000800008000200000000000000000000000000000000000000000000000000",
      "type": "0x2",
      "transactionHash": "0xa843ceb81cbab2e2909e6f55a6fb754065b4fce2d15da998409e4627c475324f",
      "transactionIndex": "0x6",
      "blockHash": "0x5cfe2391497116ba217b7e001acda3398caa2132a7a4e284a31aafef04cd277a",
      "blockNumber": "0x1a7ab23",
      "gasUsed": "0xb8ea",
      "effectiveGasPrice": "0x8bb2c97000",
      "from": "0xa0d5aa61d273688e613ba08a931f6047298f8364",
      "to": "0xb70f39b413165f456518484f33f77a386a71ed97",
      "contractAddress": "0xb70f39b413165f456518484f33f77a386a71ed97",
      "root": "0x56e81f171bcc55a6ff8345e692c0f86e5b48e01b996cadc001622fb5e363b421"
    }
  ],
  "libraries": [],
  "pending": [],
  "returns": {},
  "timestamp": 1763577596734,
  "chain": 296,
  "commit": null
}