{
  "transactions": [
    {
      "hash": "0xcd04469ea2b70fe2d93f23c9b15a80557b71b39f4fd8d077e30a545ae53d2337",
      "transactionType": "CALL",
      "contractName": null,
      "contractAddress": "0x36de27419ae1f0afa86e6644be64f8627273e22f",
      "function": "registerAgent(address,string)",
      "arguments": [
        "0x8d50302F424f23f0B21c63B316b1a5308535b8BE",
        "ipfs://bafkreifu6mao63mpdhula4ngfw3nr2hlgkznrczwsrrxffra5vrywdm5ee"
      ],
      "transaction": {
        "from": "0xa0d5aa61d273688e613ba08a931f6047298f8364",
        "to": "0x36de27419ae1f0afa86e6644be64f8627273e22f",
        "value": "0x0",
        "input": "0x22b833d80000000000000000000000008d50302f424f23f0b21c63b316b1a5308535b8be00000000000000000000000000000000000000000000000000000000000000400000000000000000000000000000000000000000000000000000000000000042697066733a2f2f6261666b7265696675366d616f36336d706468756c61346e676677336e7232686c676b7a6e72637a7773727278666672613576727977646d356565000000000000000000000000000000000000000000000000000000000000",
        "nonce": "0x141",
        "chainId": "0x128"
      },
      "additionalContracts": [],
      "isFixedGasLimit": false
    }
  ],
  "receipts": [
    {
      "status": "0x1",
      "cumulativeGasUsed": "0x49c70",
      "logs": [
        {
          "address": "0x36de27419ae1f0afa86e6644be64f8627273e22f",
          "topics": [
            "0xddf252ad1be2c89b69c2b068fc378daa952ba7f163c4a11628f55a4df523b3ef",
            "0x0000000000000000000000000000000000000000000000000000000000000000",
            "0x0000000000000000000000008d50302f424f23f0b21c63b316b1a5308535b8be",
            "0x0000000000000000000000000000000000000000000000000000000000000001"
          ],
          "data": "0x",
          "blockHash": "0xc2fb76b2a3ec6e228c07ca174f4ea01f8a724204ffb6088fda5b0863d4feb0af",
          "blockNumber": "0x1a833b1",
          "blockTimestamp": "0x691f2015",
          "transactionHash": "0xcd04469ea2b70fe2d93f23c9b15a80557b71b39f4fd8d077e30a545ae53d2337",
          "transactionIndex": "0x21",
          "logIndex": "0x1",
          "removed": false
        },
        {
          "address": "0x36de27419ae1f0afa86e6644be64f8627273e22f",
          "topics": [
            "0x0d063c6022bff16d09991a9f91882ffa112f5fb2529136f65eb4c77bbd047e43",
            "0x0000000000000000000000000000000000000000000000000000000000000001",
            "0x0000000000000000000000008d50302f424f23f0b21c63b316b1a5308535b8be"
          ],
          "data": "0x00000000000000000000000000000000000000000000000000000000000000200000000000000000000000000000000000000000000000000000000000000042697066733a2f2f6261666b7265696675366d616f36336d706468756c61346e676677336e7232686c676b7a6e72637a7773727278666672613576727977646d356565000000000000000000000000000000000000000000000000000000000000",
          "blockHash": "0xc2fb76b2a3ec6e228c07ca174f4ea01f8a724204ffb6088fda5b0863d4feb0af",
          "blockNumber": "0x1a833b1",
          "blockTimestamp": "0x691f2015",
          "transactionHash": "0xcd04469ea2b70fe2d93f23c9b15a80557b71b39f4fd8d077e30a545ae53d2337",
          "transactionIndex": "0x21",
          "logIndex": "0x2",
          "removed": false
        }
      ],
      "logsBloom": "0x000000000000000000000000000000000000000000000000000000000000000000000000000000000000000000000000000001000000000000000000000400000000000000000000000000080000000000000000000400000000000000000000000000000200008000000000000008880000000001000000000000100000000000000000000000000000000000000000000000000000000000000000000000000000000000000000000000000000000000000000000000000000000000000000000000020000004000000000000100000000000000000000000000000000e0000000000000000004000000000000000000000000000000000000000000000000",
      "type": "0x2",
      "transactionHash": "0xcd04469ea2b70fe2d93f23c9b15a80557b71b39f4fd8d077e30a545ae53d2337",
      "transactionIndex": "0x21",
      "blockHash": "0xc2fb76b2a3ec6e228c07ca174f4ea01f8a724204ffb6088fda5b0863d4feb0af",
      "blockNumber": "0x1a833b1",
      "gasUsed": "0x39905",
      "effectiveGasPrice": "0x870ab1a800",
      "from": "0xa0d5aa61d273688e613ba08a931f6047298f8364",
      "to": "0x36de27419ae1f0afa86e6644be64f8627273e22f",
      "contractAddress": "0x36de27419ae1f0afa86e6644be64f8627273e22f",
      "root": "0x56e81f171bcc55a6ff8345e692c0f86e5b48e01b996cadc001622fb5e363b421"
    }
  ],
  "libraries": [],
  "pending": [],
  "returns": {},
  "timestamp": 1763647512898,
  "chain": 296,
  "commit": null
}