{
  "transactions": [
    {
      "hash": "0x67618d3bb036b79dc81c096bf44ee1536b28f5002780d79955eec908e522c55b",
      "transactionType": "CALL",
      "contractName": null,
      "contractAddress": "0x388b0ff413eabd24b1413b6ca044372dfbc60b92",
      "function": "registerAgent(address,string)",
      "arguments": [
        "0xa0D5aA61d273688e613bA08A931f6047298F8364",
        "ipfs://bafkreifu6mao63mpdhula4ngfw3nr2hlgkznrczwsrrxffra5vrywdm5ee"
      ],
      "transaction": {
        "from": "0xa0d5aa61d273688e613ba08a931f6047298f8364",
        "to": "0x388b0ff413eabd24b1413b6ca044372dfbc60b92",
        "gas": "0x4f828",
        "value": "0x0",
        "input": "0x22b833d8000000000000000000000000a0d5aa61d273688e613ba08a931f6047298f836400000000000000000000000000000000000000000000000000000000000000400000000000000000000000000000000000000000000000000000000000000042697066733a2f2f6261666b7265696675366d616f36336d706468756c61346e676677336e7232686c676b7a6e72637a7773727278666672613576727977646d356565000000000000000000000000000000000000000000000000000000000000",
        "nonce": "0x80",
        "chainId": "0x128"
      },
      "additionalContracts": [],
      "isFixedGasLimit": false
    }
  ],
  "receipts": [
    {
      "status": "0x1",
      "cumulativeGasUsed": "0x54d48",
      "logs": [
        {
          "address": "0x388b0ff413eabd24b1413b6ca044372dfbc60b92",
          "topics": [
            "0xddf252ad1be2c89b69c2b068fc378daa952ba7f163c4a11628f55a4df523b3ef",
            "0x0000000000000000000000000000000000000000000000000000000000000000",
            "0x000000000000000000000000a0d5aa61d273688e613ba08a931f6047298f8364",
            "0x0000000000000000000000000000000000000000000000000000000000000001"
          ],
          "data": "0x",
          "blockHash": "0x7497931e5e9750f4200d365b5e9fffeaf2c5e29156012ce800b58f6a6aa95b91",
          "blockNumber": "0x1a6cd5e",
          "blockTimestamp": "0x691c536f",
          "transactionHash": "0x67618d3bb036b79dc81c096bf44ee1536b28f5002780d79955eec908e522c55b",
          "transactionIndex": "0x19",
          "logIndex": "0x9",
          "removed": false
        },
        {
          "address": "0x388b0ff413eabd24b1413b6ca044372dfbc60b92",
          "topics": [
            "0x0d063c6022bff16d09991a9f91882ffa112f5fb2529136f65eb4c77bbd047e43",
            "0x0000000000000000000000000000000000000000000000000000000000000001",
            "0x000000000000000000000000a0d5aa61d273688e613ba08a931f6047298f8364"
          ],
          "data": "0x00000000000000000000000000000000000000000000000000000000000000200000000000000000000000000000000000000000000000000000000000000042697066733a2f2f6261666b7265696675366d616f36336d706468756c61346e676677336e7232686c676b7a6e72637a7773727278666672613576727977646d356565000000000000000000000000000000000000000000000000000000000000",
          "blockHash": "0x7497931e5e9750f4200d365b5e9fffeaf2c5e29156012ce800b58f6a6aa95b91",
          "blockNumber": "0x1a6cd5e",
          "blockTimestamp": "0x691c536f",
          "transactionHash": "0x67618d3bb036b79dc81c096bf44ee1536b28f5002780d79955eec908e522c55b",
          "transactionIndex": "0x19",
          "logIndex": "0xa",
          "removed": false
        }
      ],
      "logsBloom": "0x000000000000000000000000000000000000000000000000000000000000000000000000000000000000000000000000000000000000020000000000000400004000000000000000000000080000000000000000000400000000000000000000000000000200000000000000001008000000000000000000000000100000000000000000000000000000000000000000000000000000000000000000000000000000000000000000000000000000000000000000000000000010000000000000004000020000004000000000000100000000000000000000000000000000e0000000000000000000000000000000000000000000000000000000000000004000",
      "type": "0x2",
      "transactionHash": "0x67618d3bb036b79dc81c096bf44ee1536b28f5002780d79955eec908e522c55b",
      "transactionIndex": "0x19",
      "blockHash": "0x7497931e5e9750f4200d365b5e9fffeaf2c5e29156012ce800b58f6a6aa95b91",
      "blockNumber": "0x1a6cd5e",
      "gasUsed": "0x39905",
      "effectiveGasPrice": "0x870ab1a800",
      "from": "0xa0d5aa61d273688e613ba08a931f6047298f8364",
      "to": "0x388b0ff413eabd24b1413b6ca044372dfbc60b92",
      "contractAddress": "0x388b0ff413eabd24b1413b6ca044372dfbc60b92",
      "root": "0x56e81f171bcc55a6ff8345e692c0f86e5b48e01b996cadc001622fb5e363b421"
    }
  ],
  "libraries": [],
  "pending": [],
  "returns": {},
  "timestamp": 1763464050208,
  "chain": 296,
  "commit": null
}