{
  "transactions": [
    {
      "hash": "0x06b440f42406373d3bad2e4ea12b8db5d0bb276e869f8e8fe25a1116977efcf8",
      "transactionType": "CREATE",
      "contractName": "IdentityRegistry",
      "contractAddress": "0x36de27419ae1f0afa86e6644be64f8627273e22f",
      "function": null,
      "arguments": [
        "0xa0D5aA61d273688e613bA08A931f6047298F8364"
      ],
      "transaction": {
        "from": "0xa0d5aa61d273688e613ba08a931f6047298f8364",
        "value": "0x0",
        "input": "0x608060405234610385576119aa6020813803918261001c81610389565b93849283398101031261038557516001600160a01b03811690819003610385576100466040610389565b90600a82526913515114481059d95b9d60b21b60208301526100686040610389565b60038152624d514160e81b602082015282519091906001600160401b038111610299575f54600181811c9116801561037b575b602082101461027b57601f8111610319575b506020601f82116001146102b857819293945f926102ad575b50508160011b915f199060031b1c1916175f555b81516001600160401b03811161029957600154600181811c9116801561028f575b602082101461027b57601f8111610218575b50602092601f82116001146101b757928192935f926101ac575b50508160011b915f199060031b1c1916176001555b801561019957600680546001600160a01b03198116831790915560405191906001600160a01b03167f8be0079c531659141344cd1fd0a4f28419497f9722a3daafe3b4186f6b6457e05f80a360016007556115fb90816103af8239f35b631e4fbdf760e01b5f525f60045260245ffd5b015190505f80610127565b601f1982169360015f52805f20915f5b86811061020057508360019596106101e8575b505050811b0160015561013c565b01515f1960f88460031b161c191690555f80806101da565b919260206001819286850151815501940192016101c7565b60015f527fb10e2d527612073b26eecdfd717e6a320cf44b4afac2b0732d9fcbe2b7fa0cf6601f830160051c81019160208410610271575b601f0160051c01905b818110610266575061010d565b5f8155600101610259565b9091508190610250565b634e487b7160e01b5f52602260045260245ffd5b90607f16906100fb565b634e487b7160e01b5f52604160045260245ffd5b015190505f806100c6565b601f198216905f8052805f20915f5b818110610301575095836001959697106102e9575b505050811b015f556100da565b01515f1960f88460031b161c191690555f80806102dc565b9192602060018192868b0151815501940192016102c7565b5f80527f290decd9548b62a8d60345a988386fc84ba6bc95484008f6362f93160ef3e563601f830160051c81019160208410610371575b601f0160051c01905b81811061036657506100ad565b5f8155600101610359565b9091508190610350565b90607f169061009b565b5f80fd5b6040519190601f01601f191682016001600160401b038111838210176102995760405256fe6080806040526004361015610012575f80fd5b5f3560e01c90816301ffc9a714610eb95750806306fdde0314610e17578063081812fc14610ddb578063095ea7b314610cf15780631bc51e7d14610c7e57806322b833d814610a0d57806323b872dd146109f65780632de5aaf71461091c5780633e5779ee146107ad57806342842e0e1461078457806353c8388e146105955780636352211e1461056557806370a0823114610514578063715018a6146104b957806382afd23b146104915780638da5cb5b1461046957806395d89b411461039f5780639c996edb14610367578063a22cb465146102c6578063b88d4fde1461023c578063c87b56dd146101fa578063e985e9c5146101a35763f2fde38b14610119575f80fd5b3461019f57602036600319011261019f57610132610f48565b61013a6114b6565b6001600160a01b0316801561018c57600680546001600160a01b0319811683179091556001600160a01b03167f8be0079c531659141344cd1fd0a4f28419497f9722a3daafe3b4186f6b6457e05f80a3005b631e4fbdf760e01b5f525f60045260245ffd5b5f80fd5b3461019f57604036600319011261019f576101bc610f48565b6101c4610f5e565b9060018060a01b03165f52600560205260405f209060018060a01b03165f52602052602060ff60405f2054166040519015158152f35b3461019f57602036600319011261019f57610238610224600161021e6004356114dd565b0161107d565b604051918291602083526020830190610f24565b0390f35b3461019f57608036600319011261019f57610255610f48565b61025d610f5e565b6064359167ffffffffffffffff831161019f573660238401121561019f5782600401359161028a83611029565b926102986040519485611007565b808452366024828701011161019f576020815f9260246102c49801838801378501015260443591611342565b005b3461019f57604036600319011261019f576102df610f48565b6102e7610f74565b6001600160a01b0390911690811561035457335f52600560205260405f20825f526020526103248160405f209060ff801983541691151516179055565b60405190151581527f17307eab39ab6107e8899845ad3d59bd9653f200f220920489ca2b5937696c3160203392a3005b50630b61174360e31b5f5260045260245ffd5b3461019f57602036600319011261019f576001600160a01b03610388610f48565b165f526009602052602060405f2054604051908152f35b3461019f575f36600319011261019f576040515f6001546103bf81611045565b808452906001811690811561044557506001146103e7575b6102388361022481850382611007565b60015f9081527fb10e2d527612073b26eecdfd717e6a320cf44b4afac2b0732d9fcbe2b7fa0cf6939250905b80821061042b575090915081016020016102246103d7565b919260018160209254838588010152019101909291610413565b60ff191660208086019190915291151560051b8401909101915061022490506103d7565b3461019f575f36600319011261019f576006546040516001600160a01b039091168152602090f35b3461019f57602036600319011261019f5760206104af6004356112e4565b6040519015158152f35b3461019f575f36600319011261019f576104d16114b6565b600680546001600160a01b031981169091555f906001600160a01b03167f8be0079c531659141344cd1fd0a4f28419497f9722a3daafe3b4186f6b6457e08280a3005b3461019f57602036600319011261019f576001600160a01b03610535610f48565b168015610552575f526003602052602060405f2054604051908152f35b6322718ad960e21b5f525f60045260245ffd5b3461019f57602036600319011261019f576020610583600435611482565b6040516001600160a01b039091168152f35b3461019f57604036600319011261019f5760043560243567ffffffffffffffff811161019f576105c9903690600401610f83565b6105d48392936114dd565b80546001600160a01b03163314158061076f575b610758576001019267ffffffffffffffff8211610744576106098454611045565b601f81116106ff575b505f93601f831160011461067d57827f859fac2fc059a2fa38efe7236e1c16278c1519298d62dd05582ff7fa392a104594955f91610672575b508360011b905f198560031b1c19161790555b61066d6040519283928361111d565b0390a2005b90508201358661064b565b601f19831694815f5260205f20905f5b8781106106e75750847f859fac2fc059a2fa38efe7236e1c16278c1519298d62dd05582ff7fa392a10459697106106ce575b5050600183811b01905561065e565b8301355f19600386901b60f8161c1916905585806106bf565b9091602060018192858801358155019301910161068d565b845f5260205f20601f840160051c8101916020851061073a575b601f0160051c01905b81811061072f5750610612565b5f8155600101610722565b9091508190610719565b634e487b7160e01b5f52604160045260245ffd5b8263bb868cbf60e01b5f526004523360245260445ffd5b506006546001600160a01b03163314156105e8565b3461019f576102c461079536610fb1565b90604051926107a5602085611007565b5f8452611342565b3461019f57604036600319011261019f576004356107c9610f5e565b906107d26114b6565b6001600160a01b0382169182156108cd576107ec826114dd565b80546001600160a01b03169190826108ba575b845f52600960205260405f20546108a75780546001600160a01b031916851790555f8481526009602052604090208390556001600160a01b0390610844908490611501565b16908161085e5782637e27328960e01b5f5260045260245ffd5b80820361088d5750507f36eda9b7b926e67107393abad79071481ba1bfc030e5dc2fb67e0d20a274bb3a5f80a3005b82906364283d7b60e01b5f5260045260245260445260645ffd5b8463385f02bd60e21b5f5260045260245ffd5b825f5260096020525f60408120556107ff565b60405162461bcd60e51b815260206004820152602160248201527f4964656e7469747952656769737472793a20636f6e74726f6c6c6572207a65726044820152606f60f81b6064820152608490fd5b3461019f57602036600319011261019f576004355f6040805161093e81610feb565b828152606060208201520152805f52600860205260405f20906040519061096482610feb565b82546001600160a01b0316825260ff60026109816001860161107d565b602085019081529401541615156040830190815282519091906001600160a01b0316156109e457506109d76040519384936020855260018060a01b03905116602085015251606060408501526080840190610f24565b9051151560608301520390f35b637741618960e11b5f5260045260245ffd5b3461019f576102c4610a0736610fb1565b91611144565b3461019f57604036600319011261019f57610a26610f48565b60243567ffffffffffffffff811161019f57610a46903690600401610f83565b9190610a506114b6565b6001600160a01b0382169081156108cd57815f52600960205260405f2054610c6b576007549260018401808511610c57576007556001600160a01b0390610a98908590611501565b16610c44575f83815260086020526040902080546001600160a01b0319168317815560018101919067ffffffffffffffff861161074457610ad98354611045565b601f8111610bff575b509484916020965f94601f8411600114610b765790600291847f0d063c6022bff16d09991a9f91882ffa112f5fb2529136f65eb4c77bbd047e4396975f91610b6b575b508560011b905f198760031b1c19161790555b01600160ff19825416179055845f52600987528360405f2055610b606040519283928361111d565b0390a3604051908152f35b90508401358b610b25565b601f19841695815f52895f20965f5b818110610be55750966002939291867f0d063c6022bff16d09991a9f91882ffa112f5fb2529136f65eb4c77bbd047e43989910610bcc575b5050600185811b019055610b38565b8501355f19600388901b60f8161c191690558a80610bbd565b8286013589556001909801978a9750918b01918b01610b85565b835f5260205f20601f880160051c81019160208910610c3a575b601f0160051c01905b818110610c2f5750610ae2565b5f8155600101610c22565b9091508190610c19565b6339e3563760e11b5f525f60045260245ffd5b634e487b7160e01b5f52601160045260245ffd5b5063385f02bd60e21b5f5260045260245ffd5b3461019f57604036600319011261019f576004357f5b7fa91ee392647b777096db0d386dc7cb7a3bfbc86ae6a10e0500de3a5ad02f6020610cbd610f74565b610cc56114b6565b610ce6816002610cd4876114dd565b019060ff801983541691151516179055565b6040519015158152a2005b3461019f57604036600319011261019f57610d0a610f48565b602435610d1681611482565b33151580610dc8575b80610d9b575b610d885781906001600160a01b0384811691167f8c5be1e5ebec7d5bd14f71427d1e84f3dd0314c0f7b2291e5b200ac8c7c3b9255f80a45f90815260046020526040902080546001600160a01b0319166001600160a01b03909216919091179055005b63a9fbf51f60e01b5f523360045260245ffd5b506001600160a01b0381165f90815260056020908152604080832033845290915290205460ff1615610d25565b506001600160a01b038116331415610d1f565b3461019f57602036600319011261019f57600435610df881611482565b505f526004602052602060018060a01b0360405f205416604051908152f35b3461019f575f36600319011261019f576040515f5f54610e3681611045565b80845290600181169081156104455750600114610e5d576102388361022481850382611007565b5f8080527f290decd9548b62a8d60345a988386fc84ba6bc95484008f6362f93160ef3e563939250905b808210610e9f575090915081016020016102246103d7565b919260018160209254838588010152019101909291610e87565b3461019f57602036600319011261019f576004359063ffffffff60e01b821680920361019f576020916380ac58cd60e01b8114908115610f13575b8115610f02575b5015158152f35b6301ffc9a760e01b14905083610efb565b635b5e139f60e01b81149150610ef4565b805180835260209291819084018484015e5f828201840152601f01601f1916010190565b600435906001600160a01b038216820361019f57565b602435906001600160a01b038216820361019f57565b60243590811515820361019f57565b9181601f8401121561019f5782359167ffffffffffffffff831161019f576020838186019501011161019f57565b606090600319011261019f576004356001600160a01b038116810361019f57906024356001600160a01b038116810361019f579060443590565b6060810190811067ffffffffffffffff82111761074457604052565b90601f8019910116810190811067ffffffffffffffff82111761074457604052565b67ffffffffffffffff811161074457601f01601f191660200190565b90600182811c92168015611073575b602083101461105f57565b634e487b7160e01b5f52602260045260245ffd5b91607f1691611054565b9060405191825f82549261109084611045565b80845293600181169081156110fb57506001146110b7575b506110b592500383611007565b565b90505f9291925260205f20905f915b8183106110df5750509060206110b5928201015f6110a8565b60209193508060019154838589010152019101909184926110c6565b9050602092506110b594915060ff191682840152151560051b8201015f6110a8565b90918060409360208452816020850152848401375f828201840152601f01601f1916010190565b6001600160a01b03909116919082156112d1575f828152600260205260409020546001600160a01b03169282903315158061123c575b5084611209575b805f52600360205260405f2060018154019055815f52600260205260405f20816bffffffffffffffffffffffff60a01b825416179055847fddf252ad1be2c89b69c2b068fc378daa952ba7f163c4a11628f55a4df523b3ef5f80a46001600160a01b03168083036111f157505050565b6364283d7b60e01b5f5260045260245260445260645ffd5b5f82815260046020526040902080546001600160a01b0319169055845f52600360205260405f205f198154019055611181565b90915080611280575b156112525782905f61117a565b828461126a57637e27328960e01b5f5260045260245ffd5b63177e802f60e01b5f523360045260245260445ffd5b5033841480156112af575b8061124557505f838152600460205260409020546001600160a01b03163314611245565b505f84815260056020908152604080832033845290915290205460ff1661128b565b633250574960e11b5f525f60045260245ffd5b5f52600860205260405f2060ff60026040519261130084610feb565b80546001600160a01b031684526113196001820161107d565b602085015201541615156040820181905290516001600160a01b03161561133d5790565b505f90565b929161134f818386611144565b813b61135c575b50505050565b604051630a85bd0160e11b81523360048201526001600160a01b03948516602482015260448101919091526080606482015292169190602090829081906113a7906084830190610f24565b03815f865af15f918161143d575b5061140a57503d15611403573d6113cb81611029565b906113d96040519283611007565b81523d5f602083013e5b805190816113fe5782633250574960e11b5f5260045260245ffd5b602001fd5b60606113e3565b6001600160e01b03191663757a42ff60e11b0161142b57505f808080611356565b633250574960e11b5f5260045260245ffd5b9091506020813d60201161147a575b8161145960209383611007565b8101031261019f57516001600160e01b03198116810361019f57905f6113b5565b3d915061144c565b5f818152600260205260409020546001600160a01b03169081156114a4575090565b637e27328960e01b5f5260045260245ffd5b6006546001600160a01b031633036114ca57565b63118cdaa760e01b5f523360045260245ffd5b5f81815260086020526040902080549091906001600160a01b0316156109e4575090565b5f828152600260205260409020546001600160a01b0316919082611592575b6001600160a01b03168061157a575b815f52600260205260405f20816bffffffffffffffffffffffff60a01b825416179055827fddf252ad1be2c89b69c2b068fc378daa952ba7f163c4a11628f55a4df523b3ef5f80a490565b805f52600360205260405f206001815401905561152f565b5f82815260046020526040902080546001600160a01b0319169055825f52600360205260405f205f19815401905561152056fea2646970667358221220c27d4f0147959463109d93e4efb1d5a53de07e640e923372b54806eab54a753464736f6c634300081e0033000000000000000000000000a0d5aa61d273688e613ba08a931f6047298f8364",
        "nonce": "0x129",
        "chainId": "0x128"
      },
      "additionalContracts": [],
      "isFixedGasLimit": false
    },
    {
      "hash": "0x2497d28fec0aa8856606d2087fdcd74754e4c30726dea65e2c0e2dd8aa620175",
      "transactionType": "CREATE",
      "contractName": "ReputationRegistry",
      "contractAddress": "0x0387d9685ba5f06dc8f4bac93e689546bceec133",
      "function": null,
      "arguments": [
        "0xa0D5aA61d273688e613bA08A931f6047298F8364",
        "0x36dE27419Ae1f0AfA86E6644be64F8627273e22f"
      ],
      "transaction": {
        "from": "0xa0d5aa61d273688e613ba08a931f6047298f8364",
        "value": "0x0",
        "input": "0x60a0346100e557601f610d0c38819003918201601f19168301916001600160401b038311848410176100e95780849260409485528339810103126100e55780516001600160a01b03811691908290036100e557602001516001600160a01b03811681036100e55781156100d2575f80546001600160a01b031981168417825560405193916001600160a01b03909116907f8be0079c531659141344cd1fd0a4f28419497f9722a3daafe3b4186f6b6457e09080a3608052610c0e90816100fe82396080518181816103be01526104850152f35b631e4fbdf760e01b5f525f60045260245ffd5b5f80fd5b634e487b7160e01b5f52604160045260245ffdfe6080806040526004361015610012575f80fd5b5f3560e01c908163280b4f42146109615750806342faaaaf146108e457806356e920f3146103ed57806365fad027146103a9578063715018a614610352578063799602f1146102f55780638da5cb5b146102ce5780639d4a225514610139578063de3a2b59146101135763f2fde38b1461008a575f80fd5b3461010f57602036600319011261010f576100a361099a565b6100ab610bb2565b6001600160a01b031680156100fc575f80546001600160a01b03198116831782556001600160a01b0316907f8be0079c531659141344cd1fd0a4f28419497f9722a3daafe3b4186f6b6457e09080a3005b631e4fbdf760e01b5f525f60045260245ffd5b5f80fd5b3461010f57602036600319011261010f576020610131600435610b7a565b604051908152f35b3461010f57602036600319011261010f576004355f52600160205260405f2080549067ffffffffffffffff82116102ba576040519161017e60208260051b0184610a3a565b8083526020830180925f5260205f205f915b83831061024d57848660405191829160208301906020845251809152604083019060408160051b85010192915f905b8282106101ce57505050500390f35b919360019193955060208091603f198982030185528751908151815260ff83830151168382015260a0610225610213604085015160c0604086015260c08501906109de565b606085015184820360608601526109de565b9260808101516080840152818780821b039101511691015296019201920185949391926101bf565b6006602060019260405161026081610a02565b8554815260ff85870154168382015261027b60028701610ada565b604082015261028c60038701610ada565b606082015260048601546080820152848060a01b0360058701541660a0820152815201920192019190610190565b634e487b7160e01b5f52604160045260245ffd5b3461010f575f36600319011261010f575f546040516001600160a01b039091168152602090f35b3461010f57602036600319011261010f575f602060405161031581610a1e565b82815201526004355f5260026020526040805f20815161033481610a1e565b60206001835493848452015491019081528251918252516020820152f35b3461010f575f36600319011261010f5761036a610bb2565b5f80546001600160a01b0319811682556001600160a01b03167f8be0079c531659141344cd1fd0a4f28419497f9722a3daafe3b4186f6b6457e08280a3005b3461010f575f36600319011261010f576040517f00000000000000000000000000000000000000000000000000000000000000006001600160a01b03168152602090f35b3461010f5760a036600319011261010f576004356024356044359160ff831680930361010f5760643567ffffffffffffffff811161010f576104339036906004016109b0565b9360843567ffffffffffffffff811161010f576104549036906004016109b0565b335f52600360205260ff60405f205416156108d1576040516382afd23b60e01b8152600481018690526020816024817f00000000000000000000000000000000000000000000000000000000000000006001600160a01b03165afa9081156108c6575f9161088b575b5015610878576064831161086557604051906104d882610a02565b86825261050060208301938585526104f1368b89610a5c565b92604085019384523691610a5c565b60608301908152608083019142835260a0840194338652885f52600160205260405f20805490680100000000000000008210156102ba5760018201808255821015610851575f52600660205f209102019451855560ff6001860191511660ff1982541617905560028401905180519067ffffffffffffffff82116102ba57819061058a8454610aa2565b601f8111610801575b50602090601f831160011461079e575f92610793575b50508160011b915f199060031b1c19161790555b518051600384019167ffffffffffffffff82116102ba576105de8354610aa2565b601f811161074e575b50602090601f83116001146106e657600595949392915f91836106db575b50508160011b915f199060031b1c19161790555b516004820155019060018060a01b039051166bffffffffffffffffffffffff60a01b825416179055825f52600260205260405f20805490600182018092116106c7576001918155018054928284018094116106c7577f91622f0707905f4e52181f5494c2127051c868a3d39e553179149c8569902081938792556040519283526040602084015281604084015260608301375f606086830101526060813396601f80199101168101030190a4005b634e487b7160e01b5f52601160045260245ffd5b015190508c80610605565b90601f19831691845f52815f20925f5b8181106107365750916001939185600599989796941061071e575b505050811b019055610619565b01515f1960f88460031b161c191690558c8080610711565b929360206001819287860151815501950193016106f6565b835f5260205f20601f840160051c81019160208510610789575b601f0160051c01905b81811061077e57506105e7565b5f8155600101610771565b9091508190610768565b015190508c806105a9565b5f8581528281209350601f198516905b8181106107e957509084600195949392106107d1575b505050811b0190556105bd565b01515f1960f88460031b161c191690558c80806107c4565b929360206001819287860151815501950193016107ae565b909150835f5260205f20601f840160051c81019160208510610847575b90601f859493920160051c01905b8181106108395750610593565b5f815584935060010161082c565b909150819061081e565b634e487b7160e01b5f52603260045260245ffd5b82633fd9cc8760e11b5f5260045260245ffd5b84631eca06ad60e21b5f5260045260245ffd5b90506020813d6020116108be575b816108a660209383610a3a565b8101031261010f5751801515810361010f57886104bd565b3d9150610899565b6040513d5f823e3d90fd5b6322c630af60e21b5f523360045260245ffd5b3461010f57604036600319011261010f576108fd61099a565b6024359081151580920361010f5760207f30b6cdfe01982d0e978752f156ecb4134f5bc37a7bdce67ff994d4076ec34a5d91610937610bb2565b60018060a01b031692835f526003825260405f2060ff1981541660ff8316179055604051908152a2005b3461010f57602036600319011261010f576020906001600160a01b0361098561099a565b165f526003825260ff60405f20541615158152f35b600435906001600160a01b038216820361010f57565b9181601f8401121561010f5782359167ffffffffffffffff831161010f576020838186019501011161010f57565b805180835260209291819084018484015e5f828201840152601f01601f1916010190565b60c0810190811067ffffffffffffffff8211176102ba57604052565b6040810190811067ffffffffffffffff8211176102ba57604052565b90601f8019910116810190811067ffffffffffffffff8211176102ba57604052565b92919267ffffffffffffffff82116102ba5760405191610a86601f8201601f191660200184610a3a565b82948184528183011161010f578281602093845f960137010152565b90600182811c92168015610ad0575b6020831014610abc57565b634e487b7160e01b5f52602260045260245ffd5b91607f1691610ab1565b9060405191825f825492610aed84610aa2565b8084529360018116908115610b585750600114610b14575b50610b1292500383610a3a565b565b90505f9291925260205f20905f915b818310610b3c575050906020610b12928201015f610b05565b6020919350806001915483858901015201910190918492610b23565b905060209250610b1294915060ff191682840152151560051b8201015f610b05565b5f52600260205260405f206020604051610b9381610a1e565b6001835493848352015491829101528115610bac570490565b50505f90565b5f546001600160a01b03163303610bc557565b63118cdaa760e01b5f523360045260245ffdfea2646970667358221220e744bdd7d6b045197cb9a5a0db0a743d8726d91b639c6a12ddb923ad4ce2426e64736f6c634300081e0033000000000000000000000000a0d5aa61d273688e613ba08a931f6047298f836400000000000000000000000036de27419ae1f0afa86e6644be64f8627273e22f",
        "nonce": "0x12a",
        "chainId": "0x128"
      },
      "additionalContracts": [],
      "isFixedGasLimit": false
    },
    {
      "hash": "0xcd3bdf077d64e68adca6cad2eca4a3afda5f5c5d77a6383c5584785e7d70856c",
      "transactionType": "CREATE",
      "contractName": "ValidationRegistry",
      "contractAddress": "0x63d0f398d437191a4ae014e5cc844b094a5c5726",
      "function": null,
      "arguments": [
        "0xa0D5aA61d273688e613bA08A931f6047298F8364",
        "0x36dE27419Ae1f0AfA86E6644be64F8627273e22f"
      ],
      "transaction": {
        "from": "0xa0d5aa61d273688e613ba08a931f6047298f8364",
        "value": "0x0",
        "input": "0x60a0346100e557601f610bf938819003918201601f19168301916001600160401b038311848410176100e95780849260409485528339810103126100e55780516001600160a01b03811691908290036100e557602001516001600160a01b03811681036100e55781156100d2575f80546001600160a01b031981168417825560405193916001600160a01b03909116907f8be0079c531659141344cd1fd0a4f28419497f9722a3daafe3b4186f6b6457e09080a3608052610afb90816100fe82396080518181816102f401526106bb0152f35b631e4fbdf760e01b5f525f60045260245ffd5b5f80fd5b634e487b7160e01b5f52604160045260245ffdfe6080806040526004361015610012575f80fd5b5f3560e01c908163125f8974146109c45750806326d83a861461091e578063366a0016146106ea57806365fad027146106a657806367905d8014610254578063715018a6146101fd5780638da5cb5b146101d6578063c72c914814610150578063d9ab12aa146101135763f2fde38b1461008a575f80fd5b3461010f57602036600319011261010f576100a36109eb565b6100ab610a9f565b6001600160a01b031680156100fc575f80546001600160a01b03198116831782556001600160a01b0316907f8be0079c531659141344cd1fd0a4f28419497f9722a3daafe3b4186f6b6457e09080a3005b631e4fbdf760e01b5f525f60045260245ffd5b5f80fd5b3461010f57602036600319011261010f576001600160a01b036101346109eb565b165f526003602052602060ff60405f2054166040519015158152f35b3461010f57604036600319011261010f576101696109eb565b602435908115159081830361010f577fed4bb15dbf72365acce7ff6c075f6c0c2bc831c0d07b40c46b15b6afefaadd47916101cd6020926101a8610a9f565b60018060a01b031694855f526003845260405f209060ff801983541691151516179055565b604051908152a2005b3461010f575f36600319011261010f575f546040516001600160a01b039091168152602090f35b3461010f575f36600319011261010f57610215610a9f565b5f80546001600160a01b0319811682556001600160a01b03167f8be0079c531659141344cd1fd0a4f28419497f9722a3daafe3b4186f6b6457e08280a3005b3461010f5760a036600319011261010f57604435600435602435600583101561010f576064359167ffffffffffffffff831161010f573660238401121561010f57826004013567ffffffffffffffff811161010f57366024828601011161010f576084359384151580950361010f57335f52600360205260ff60405f20541615610693576040516382afd23b60e01b8152600481018590526020816024817f00000000000000000000000000000000000000000000000000000000000000006001600160a01b03165afa908115610688575f9161064d575b501561063a576040519161033f83610a01565b8383526020830191858352604084013381525f602060608701946103638c87610a5b565b8060246040519661037d85601f19601f8601160189610a1d565b8288520183870137840101526080850191825260a085019288845260c0860194428652600154600160401b811015610530578060016103bf9201600155610a3f565b97909761062757518755516001870155600286019160018060a01b039051166bffffffffffffffffffffffff60a01b83541617825551600581101561061357815460ff60a01b191660a09190911b60ff60a01b16179055518051600385019167ffffffffffffffff8211610530576104378354610a67565b601f81116105ce575b50602090601f831160011461056357918061048e949260059796945f92610558575b50508160011b915f199060031b1c19161790555b511515600485019060ff801983541691151516179055565b519101556001545f1981019390841161054457815f52600260205260405f208054600160401b811015610530576001810180835581101561051c576020968693846060937fd8e53bd53ae7a0b48ddf2aa1f353b7853686853b9ccd9c6580923e1ce0f85edb955f528a5f20015561050e604051923384528a8401906109de565b6040820152a4604051908152f35b634e487b7160e01b5f52603260045260245ffd5b634e487b7160e01b5f52604160045260245ffd5b634e487b7160e01b5f52601160045260245ffd5b015190508c80610462565b90601f19831691845f52815f20925f5b8181106105b65750926001928592600599989661048e98961061059e575b505050811b019055610476565b01515f1960f88460031b161c191690558c8080610591565b92936020600181928786015181550195019301610573565b835f5260205f20601f840160051c81019160208510610609575b601f0160051c01905b8181106105fe5750610440565b5f81556001016105f1565b90915081906105e8565b634e487b7160e01b5f52602160045260245ffd5b634e487b7160e01b5f525f60045260245ffd5b8363e09f61c560e01b5f5260045260245ffd5b90506020813d602011610680575b8161066860209383610a1d565b8101031261010f5751801515810361010f578761032c565b3d915061065b565b6040513d5f823e3d90fd5b6368b53cf760e11b5f523360045260245ffd5b3461010f575f36600319011261010f576040517f00000000000000000000000000000000000000000000000000000000000000006001600160a01b03168152602090f35b3461010f57602036600319011261010f576004355f60c060405161070d81610a01565b828152826020820152826040820152826060820152606060808201528260a082015201526001548110156108cd5761074490610a3f565b5060405161075181610a01565b8154815260018201546020820190815260028301546001600160a01b03811660408401908152919390606084019061078f9060a01c60ff1682610a5b565b6003820190604051915f908054906107a682610a67565b80865291600181169081156108a75750600114610867575b886101208960208a8a8a61082b8b6107d8838d0384610a1d565b60808701928352600560ff6004860154169460a08901951515865201549460c08801958652604051998a98888a5251888a015251604089015260018060a01b0390511660608801525160808701906109de565b5160e060a0860152805193849182610100880152018686015e5f84840186015251151560c08401525160e0830152601f01601f19168101030190f35b5f908152602081209092505b81831061088d575050820160209081019061082b906107be565b600181602092949394548385890101520191019190610873565b60ff191660208088019190915292151560051b86018301935061082b9291506107be9050565b60405162461bcd60e51b8152602060048201526024808201527f56616c69646174696f6e52656769737472793a20696e76616c6964207265636f6044820152631c99125960e21b6064820152608490fd5b3461010f57602036600319011261010f576004355f52600260205260405f20604051806020835491828152019081935f5260205f20905f5b8181106109ae575050508161096c910382610a1d565b604051918291602083019060208452518091526040830191905f5b818110610995575050500390f35b8251845285945060209384019390920191600101610987565b8254845260209093019260019283019201610956565b3461010f575f36600319011261010f576020906001548152f35b9060058210156106135752565b600435906001600160a01b038216820361010f57565b60e0810190811067ffffffffffffffff82111761053057604052565b90601f8019910116810190811067ffffffffffffffff82111761053057604052565b60015481101561051c5760015f52600660205f20910201905f90565b60058210156106135752565b90600182811c92168015610a95575b6020831014610a8157565b634e487b7160e01b5f52602260045260245ffd5b91607f1691610a76565b5f546001600160a01b03163303610ab257565b63118cdaa760e01b5f523360045260245ffdfea2646970667358221220fd385cef4eb6830047664111cb3e862add7f818830bac2e61e2d17a36041324864736f6c634300081e0033000000000000000000000000a0d5aa61d273688e613ba08a931f6047298f836400000000000000000000000036de27419ae1f0afa86e6644be64f8627273e22f",
        "nonce": "0x12b",
        "chainId": "0x128"
      },
      "additionalContracts": [],
      "isFixedGasLimit": false
    },
    {
      "hash": "0x55b6eba46c53b7ffaa49df6c160f7372e126ae4bb357f2108695af8e6bf731df",
      "transactionType": "CREATE",
      "contractName": "AgentRegistryAdapter",
      "contractAddress": "0xe8090831dc6f786f238f6fed55fe3bfd072c8d44",
      "function": null,
      "arguments": [
        "0x36dE27419Ae1f0AfA86E6644be64F8627273e22f"
      ],
      "transaction": {
        "from": "0xa0d5aa61d273688e613ba08a931f6047298f8364",
        "value": "0x0",
        "input": "0x60a034606c57601f6102c838819003918201601f19168301916001600160401b03831184841017607057808492602094604052833981010312606c57516001600160a01b0381168103606c5760805260405161024390816100858239608051818181606f01526101a80152f35b5f80fd5b634e487b7160e01b5f52604160045260245ffdfe6080806040526004361015610012575f80fd5b5f3560e01c90816365fad02714610196575063baa04c7514610032575f80fd5b34610139576020366003190112610139576004356001600160a01b0381169081900361013957604051639c996edb60e01b815260048101829052907f00000000000000000000000000000000000000000000000000000000000000006001600160a01b031690602083602481855afa928315610145575f93610162575b50821561015057506020602491604051928380926382afd23b60e01b82528660048301525afa908115610145575f91610106575b50156100f457602090604051908152f35b635ba6860560e11b5f5260045260245ffd5b90506020813d60201161013d575b81610121602093836101d7565b8101031261013957518015158103610139575f6100e3565b5f80fd5b3d9150610114565b6040513d5f823e3d90fd5b6358f2f4e760e11b5f5260045260245ffd5b9092506020813d60201161018e575b8161017e602093836101d7565b810103126101395751915f6100af565b3d9150610171565b34610139575f366003190112610139577f00000000000000000000000000000000000000000000000000000000000000006001600160a01b03168152602090f35b90601f8019910116810190811067ffffffffffffffff8211176101f957604052565b634e487b7160e01b5f52604160045260245ffdfea26469706673582212209696a58be9595baa44ad0b9cf720376ab43a596e595917a9e47aaec72c52258864736f6c634300081e003300000000000000000000000036de27419ae1f0afa86e6644be64f8627273e22f",
        "nonce": "0x12c",
        "chainId": "0x128"
      },
      "additionalContracts": [],
      "isFixedGasLimit": false
    },
    {
      "hash": "0x342051206e071bc44f54c6b6fc0c51cda24fe6775036eca302ded70427dde0bf",
      "transactionType": "CREATE",
      "contractName": "MedqToken",
      "contractAddress": "0x7b2ff9782b29eeed547e43260fbf8250d8527c3b",
      "function": null,
      "arguments": [
        "0xa0D5aA61d273688e613bA08A931f6047298F8364"
      ],
      "transaction": {
        "from": "0xa0d5aa61d273688e613ba08a931f6047298f8364",
        "value": "0x0",
        "input": "0x60806040523461034c576113c96020813803918261001c81610350565b93849283398101031261034c57516001600160a01b038116810361034c576100446040610350565b90600a82526926a2a228902a37b5b2b760b11b60208301526100666040610350565b60048152634d45445160e01b602082015282519091906001600160401b03811161025d57600354600181811c91168015610342575b602082101461023f57601f81116102df575b506020601f821160011461027c57819293945f92610271575b50508160011b915f199060031b1c1916176003555b8151916001600160401b03831161025d57600454600181811c91168015610253575b602082101461023f57601f81116101dc575b50602090601f84116001146101745761015993915f9183610169575b50508160011b915f199060031b1c1916176004555b61014981610375565b50610153816103eb565b5061047e565b50604051610e3790816105128239f35b015190505f8061012b565b90601f1984169160045f52815f20925f5b8181106101c457509160019391866101599794106101ac575b505050811b01600455610140565b01515f1960f88460031b161c191690555f808061019e565b92936020600181928786015181550195019301610185565b60045f527f8a35acfbc15ff81a39ae7d344fd709f28e8600b4aa8c65c6b64bfe7fe36bd19b601f850160051c81019160208610610235575b601f0160051c01905b81811061022a575061010f565b5f815560010161021d565b9091508190610214565b634e487b7160e01b5f52602260045260245ffd5b90607f16906100fd565b634e487b7160e01b5f52604160045260245ffd5b015190505f806100c6565b601f1982169060035f52805f20915f5b8181106102c7575095836001959697106102af575b505050811b016003556100db565b01515f1960f88460031b161c191690555f80806102a1565b9192602060018192868b01518155019401920161028c565b60035f527fc2575a0e9e593c00f959f8c92f12db2869c3395a3b0502d05e2516446f71f85b601f830160051c81019160208410610338575b601f0160051c01905b81811061032d57506100ad565b5f8155600101610320565b9091508190610317565b90607f169061009b565b5f80fd5b6040519190601f01601f191682016001600160401b0381118382101761025d57604052565b6001600160a01b0381165f9081525f5160206113a95f395f51905f52602052604090205460ff166103e6576001600160a01b03165f8181525f5160206113a95f395f51905f5260205260408120805460ff191660011790553391905f5160206113495f395f51905f528180a4600190565b505f90565b6001600160a01b0381165f9081525f5160206113695f395f51905f52602052604090205460ff166103e6576001600160a01b03165f8181525f5160206113695f395f51905f5260205260408120805460ff191660011790553391907f9f2df0fed2c77648de5860a4cc508cd0818c85b8b8a1ab4ceeef8d981c8956a6905f5160206113495f395f51905f529080a4600190565b6001600160a01b0381165f9081525f5160206113895f395f51905f52602052604090205460ff166103e6576001600160a01b03165f8181525f5160206113895f395f51905f5260205260408120805460ff191660011790553391907f3c11d16cbaffd01df69ce1c404f6340ee057498f5f00246190ea54220576a848905f5160206113495f395f51905f529080a460019056fe6080806040526004361015610012575f80fd5b5f3560e01c90816301ffc9a7146108855750806306fdde03146107b3578063095ea7b31461070b57806318160ddd146106ee57806323b872dd146106b6578063248a9ca314610683578063282c51f3146106495780632f2ff15d1461060b578063313ce567146105f057806336568abe146105ac5780633dd1eb611461055257806340c10f191461046657806342966c681461044957806369e2f0fb146103ef57806370a08231146103b857806379cc67901461038857806391d148541461033f57806395d89b4114610224578063a217fddf1461020a578063a9059cbb146101d9578063d5391393146101b2578063d547741f1461016d5763dd62ed3e14610119575f80fd5b3461016957604036600319011261016957610132610902565b61013a610918565b6001600160a01b039182165f908152600160209081526040808320949093168252928352819020549051908152f35b5f80fd5b34610169576040366003190112610169576101b060043561018c610918565b906101ab6101a6825f526005602052600160405f20015490565b610aca565b610cb9565b005b34610169575f3660031901126101695760206040515f516020610de25f395f51905f528152f35b34610169576040366003190112610169576101ff6101f5610902565b60243590336109d1565b602060405160018152f35b34610169575f3660031901126101695760206040515f8152f35b34610169575f366003190112610169576040515f6004548060011c90600181168015610335575b6020831081146103215782855290811561030557506001146102b0575b50819003601f01601f191681019067ffffffffffffffff82118183101761029c57610298829182604052826108d8565b0390f35b634e487b7160e01b5f52604160045260245ffd5b905060045f527f8a35acfbc15ff81a39ae7d344fd709f28e8600b4aa8c65c6b64bfe7fe36bd19b5f905b8282106102ef57506020915082010182610268565b60018160209254838588010152019101906102da565b90506020925060ff191682840152151560051b82010182610268565b634e487b7160e01b5f52602260045260245ffd5b91607f169161024b565b3461016957604036600319011261016957610358610918565b6004355f52600560205260405f209060018060a01b03165f52602052602060ff60405f2054166040519015158152f35b34610169576040366003190112610169576101b06103a4610902565b602435906103b382338361092e565b610d3d565b34610169576020366003190112610169576001600160a01b036103d9610902565b165f525f602052602060405f2054604051908152f35b3461016957602036600319011261016957610408610902565b610410610a7b565b61041981610c28565b506001600160a01b03167ff474b72f3e21ebafdad7dadfcb99ae7eabdbf538d52a0e0eecbf8ce0fa7043fe5f80a2005b34610169576020366003190112610169576101b060043533610d3d565b346101695760403660031901126101695761047f610902565b335f9081525f516020610dc25f395f51905f526020526040902054602435919060ff161561052e576001600160a01b031690811561051b57600254908082018092116105075760207fddf252ad1be2c89b69c2b068fc378daa952ba7f163c4a11628f55a4df523b3ef915f9360025584845283825260408420818154019055604051908152a3005b634e487b7160e01b5f52601160045260245ffd5b63ec442f0560e01b5f525f60045260245ffd5b63e2517d3f60e01b5f52336004525f516020610de25f395f51905f5260245260445ffd5b346101695760203660031901126101695761056b610902565b610573610a7b565b61057c81610b04565b506001600160a01b03167fbd42b6cd963a984d8cbff85acad4dd2c87a6d85ac756d16e6d2ec5ce6c8f07305f80a2005b34610169576040366003190112610169576105c5610918565b336001600160a01b038216036105e1576101b090600435610cb9565b63334bd91960e11b5f5260045ffd5b34610169575f36600319011261016957602060405160128152f35b34610169576040366003190112610169576101b060043561062a610918565b906106446101a6825f526005602052600160405f20015490565b610b9c565b34610169575f3660031901126101695760206040517f3c11d16cbaffd01df69ce1c404f6340ee057498f5f00246190ea54220576a8488152f35b346101695760203660031901126101695760206106ae6004355f526005602052600160405f20015490565b604051908152f35b34610169576060366003190112610169576101ff6106d2610902565b6106da610918565b604435916106e983338361092e565b6109d1565b34610169575f366003190112610169576020600254604051908152f35b3461016957604036600319011261016957610724610902565b6024359033156107a0576001600160a01b031690811561078d57335f52600160205260405f20825f526020528060405f20556040519081527f8c5be1e5ebec7d5bd14f71427d1e84f3dd0314c0f7b2291e5b200ac8c7c3b92560203392a3602060405160018152f35b634a1406b160e11b5f525f60045260245ffd5b63e602df0560e01b5f525f60045260245ffd5b34610169575f366003190112610169576040515f6003548060011c9060018116801561087b575b6020831081146103215782855290811561030557506001146108265750819003601f01601f191681019067ffffffffffffffff82118183101761029c57610298829182604052826108d8565b905060035f527fc2575a0e9e593c00f959f8c92f12db2869c3395a3b0502d05e2516446f71f85b5f905b82821061086557506020915082010182610268565b6001816020925483858801015201910190610850565b91607f16916107da565b34610169576020366003190112610169576004359063ffffffff60e01b821680920361016957602091637965db0b60e01b81149081156108c7575b5015158152f35b6301ffc9a760e01b149050836108c0565b602060409281835280519182918282860152018484015e5f828201840152601f01601f1916010190565b600435906001600160a01b038216820361016957565b602435906001600160a01b038216820361016957565b6001600160a01b039081165f818152600160209081526040808320948616835293905291909120549291905f198410610968575b50505050565b8284106109ae5780156107a0576001600160a01b0382161561078d575f52600160205260405f209060018060a01b03165f5260205260405f20910390555f808080610962565b508290637dc7a0d960e11b5f5260018060a01b031660045260245260445260645ffd5b6001600160a01b0316908115610a68576001600160a01b031691821561051b57815f525f60205260405f2054818110610a4f57817fddf252ad1be2c89b69c2b068fc378daa952ba7f163c4a11628f55a4df523b3ef92602092855f525f84520360405f2055845f525f825260405f20818154019055604051908152a3565b8263391434e360e21b5f5260045260245260445260645ffd5b634b637e8f60e11b5f525f60045260245ffd5b335f9081527f05b8ccbb9d4d8fb16ea74ce3c29a41f1b461fbdaff4714a0d9a8eb05499746bc602052604090205460ff1615610ab357565b63e2517d3f60e01b5f52336004525f60245260445ffd5b5f81815260056020908152604080832033845290915290205460ff1615610aee5750565b63e2517d3f60e01b5f523360045260245260445ffd5b6001600160a01b0381165f9081525f516020610dc25f395f51905f52602052604090205460ff16610b97576001600160a01b03165f8181525f516020610dc25f395f51905f5260205260408120805460ff191660011790553391905f516020610de25f395f51905f52907f2f8788117e7eff1d82e926ec794901d17c78024a50270940304540a733656f0d9080a4600190565b505f90565b5f8181526005602090815260408083206001600160a01b038616845290915290205460ff16610c22575f8181526005602090815260408083206001600160a01b0395909516808452949091528120805460ff19166001179055339291907f2f8788117e7eff1d82e926ec794901d17c78024a50270940304540a733656f0d9080a4600190565b50505f90565b6001600160a01b0381165f9081525f516020610dc25f395f51905f52602052604090205460ff1615610b97576001600160a01b03165f8181525f516020610dc25f395f51905f5260205260408120805460ff191690553391905f516020610de25f395f51905f52907ff6391f5c32d9c69d2a47ea670b442974b53935d1edc7fd64eb21e047a839171b9080a4600190565b5f8181526005602090815260408083206001600160a01b038616845290915290205460ff1615610c22575f8181526005602090815260408083206001600160a01b0395909516808452949091528120805460ff19169055339291907ff6391f5c32d9c69d2a47ea670b442974b53935d1edc7fd64eb21e047a839171b9080a4600190565b9091906001600160a01b03168015610a6857805f525f60205260405f2054838110610da7576020845f94957fddf252ad1be2c89b69c2b068fc378daa952ba7f163c4a11628f55a4df523b3ef938587528684520360408620558060025403600255604051908152a3565b915063391434e360e21b5f5260045260245260445260645ffdfe15a28d26fa1bf736cf7edc9922607171ccb09c3c73b808e7772a3013e068a5229f2df0fed2c77648de5860a4cc508cd0818c85b8b8a1ab4ceeef8d981c8956a6a264697066735822122093bc1a8e9ee4b065b33daa21109778eec5c826c8c33e332c8598e72ab9b902c264736f6c634300081e00332f8788117e7eff1d82e926ec794901d17c78024a50270940304540a733656f0d15a28d26fa1bf736cf7edc9922607171ccb09c3c73b808e7772a3013e068a522847f481f687befb06ed3511f1a8dcef57e83007c0147ae5047583d705617093705b8ccbb9d4d8fb16ea74ce3c29a41f1b461fbdaff4714a0d9a8eb05499746bc000000000000000000000000a0d5aa61d273688e613ba08a931f6047298f8364",
        "nonce": "0x12d",
        "chainId": "0x128"
      },
      "additionalContracts": [],
      "isFixedGasLimit": false
    },
    {
      "hash": "0x655b4a04fa7b5af7db8be90d69c9e943624f4c479a7f986e2374ba7f6c7b4e43",
      "transactionType": "CREATE",
      "contractName": "RewardVault",
      "contractAddress": "0x799c3db5118fdc6bf7e254b1662aaeb8a49ccae5",
      "function": null,
      "arguments": [
        "0xa0D5aA61d273688e613bA08A931f6047298F8364"
      ],
      "transaction": {
        "from": "0xa0d5aa61d273688e613ba08a931f6047298f8364",
        "value": "0x0",
        "input": "0x60803460b857601f61077a38819003918201601f19168301916001600160401b0383118484101760bc5780849260209460405283398101031260b857516001600160a01b0381169081900360b857801560a5575f80546001600160a01b031981168317825560405192916001600160a01b03909116907f8be0079c531659141344cd1fd0a4f28419497f9722a3daafe3b4186f6b6457e09080a36106a990816100d18239f35b631e4fbdf760e01b5f525f60045260245ffd5b5f80fd5b634e487b7160e01b5f52604160045260245ffdfe60806040526004361015610011575f80fd5b5f5f3560e01c80630632eeeb146104a6578063310e84241461043e578063625cdead146103c7578063709a795b1461039f578063715018a61461034857806381a00f83146102eb5780638da5cb5b146102c4578063c419403114610139578063dc1627eb146101105763f2fde38b14610088575f80fd5b3461010d57602036600319011261010d576100a16105f8565b6100a961064d565b6001600160a01b031680156100f95781546001600160a01b03198116821783556001600160a01b03167f8be0079c531659141344cd1fd0a4f28419497f9722a3daafe3b4186f6b6457e08380a380f35b631e4fbdf760e01b82526004829052602482fd5b80fd5b503461010d578060031936011261010d576002546040516001600160a01b039091168152602090f35b50346102595760403660031901126102595760043560243561015961062a565b6003546001600160a01b0316156102b557815f52600160205260405f20546102a257801561025d5760405161018d8161060e565b8181526001602082015f8152845f528160205260405f20925183555191015560018060a01b0360035416803b15610259575f80916044604051809481936340c10f1960e01b83523060048401528760248401525af1801561024e5761021c575b5060207f4f0775335d78e0bfaf0bd965fe6088dbd28697f9c0590c66383d5314bea5c9e591604051908152a280f35b90925067ffffffffffffffff811161023a576040525f9160206101ed565b634e487b7160e01b5f52604160045260245ffd5b6040513d5f823e3d90fd5b5f80fd5b60405162461bcd60e51b815260206004820152601860248201527f5265776172645661756c743a207a65726f20616d6f756e7400000000000000006044820152606490fd5b506307a8a9a960e41b5f5260045260245ffd5b634ca1ad5760e01b5f5260045ffd5b34610259575f366003190112610259575f546040516001600160a01b039091168152602090f35b34610259576020366003190112610259575f602060405161030b8161060e565b82815201526004355f5260016020526040805f20815161032a8161060e565b60206001835493848452015491019081528251918252516020820152f35b34610259575f3660031901126102595761036061064d565b5f80546001600160a01b0319811682556001600160a01b03167f8be0079c531659141344cd1fd0a4f28419497f9722a3daafe3b4186f6b6457e08280a3005b34610259575f366003190112610259576003546040516001600160a01b039091168152602090f35b34610259576020366003190112610259576103e06105f8565b6103e861064d565b6001600160a01b0316801561042f57600280546001600160a01b031916821790557f23d064e8743c7b6ccc2901ff570767b1a6aa908e7c01ef4af625ea7ecae965ba5f80a2005b6326f755d960e11b5f5260045ffd5b34610259576020366003190112610259576104576105f8565b61045f61064d565b6001600160a01b031680156102b557600380546001600160a01b031916821790557f19e2f74cac9e292362fe780f5b9aff112e676077da6c8117f059ec27fdf45d345f80a2005b34610259576060366003190112610259576024356001600160a01b0381169060043590829003610259576044356104db61062a565b815f52600160205260405f2080549081156105e557821561025d576001018054918281039081116105b7578084116105cb57508282018092116105b7575560018060a01b0360035416906040519163a9059cbb60e01b5f52846004528160245260205f60448180855af160015f5114811615610598575b83604052156105865750816020917f3c4d26369af83ecee8c33f84de0921b8c4a1e7b1949b1e2112fdf72e1a4508e29352a3005b635274afe760e01b5f5260045260245ffd5b60018115166105ae57813b15153d151616610552565b833d5f823e3d90fd5b634e487b7160e01b5f52601160045260245ffd5b8385636a7a4e4760e11b5f5260045260245260445260645ffd5b8363103f79d760e21b5f5260045260245ffd5b600435906001600160a01b038216820361025957565b6040810190811067ffffffffffffffff82111761023a57604052565b6002546001600160a01b0316330361063e57565b630268f9d560e11b5f5260045ffd5b5f546001600160a01b0316330361066057565b63118cdaa760e01b5f523360045260245ffdfea2646970667358221220eeed33f2e3066efc7a54a2858a09d330506c881009b38b3b5a770804f63a228864736f6c634300081e0033000000000000000000000000a0d5aa61d273688e613ba08a931f6047298f8364",
        "nonce": "0x12e",
        "chainId": "0x128"
      },
      "additionalContracts": [],
      "isFixedGasLimit": false
    },
    {
      "hash": "0x31126c08aaab64c0ba6d3662ccdea9bd49e99793432ab81a5163587d1a3b0639",
      "transactionType": "CREATE",
      "contractName": "BadgeNFT",
      "contractAddress": "0xc991bac9a471cb8ab541ece23df603f51f84bfbe",
      "function": null,
      "arguments": [
        "0xa0D5aA61d273688e613bA08A931f6047298F8364"
      ],
      "transaction": {
        "from": "0xa0d5aa61d273688e613ba08a931f6047298f8364",
        "value": "0x0",
        "input": "0x60806040523461038c576118b76020813803918261001c81610390565b93849283398101031261038c57516001600160a01b0381169081900361038c576100466040610390565b9060118252704d4544512051756573742042616467657360781b602083015261006f6040610390565b600381526226a8a160e91b602082015282519091906001600160401b0381116102a0575f54600181811c91168015610382575b602082101461028257601f8111610320575b506020601f82116001146102bf57819293945f926102b4575b50508160011b915f199060031b1c1916175f555b81516001600160401b0381116102a057600154600181811c91168015610296575b602082101461028257601f811161021f575b50602092601f82116001146101be57928192935f926101b3575b50508160011b915f199060031b1c1916176001555b80156101a057600780546001600160a01b03198116831790915560405191906001600160a01b03167f8be0079c531659141344cd1fd0a4f28419497f9722a3daafe3b4186f6b6457e05f80a3600160095561150190816103b68239f35b631e4fbdf760e01b5f525f60045260245ffd5b015190505f8061012e565b601f1982169360015f52805f20915f5b86811061020757508360019596106101ef575b505050811b01600155610143565b01515f1960f88460031b161c191690555f80806101e1565b919260206001819286850151815501940192016101ce565b60015f527fb10e2d527612073b26eecdfd717e6a320cf44b4afac2b0732d9fcbe2b7fa0cf6601f830160051c81019160208410610278575b601f0160051c01905b81811061026d5750610114565b5f8155600101610260565b9091508190610257565b634e487b7160e01b5f52602260045260245ffd5b90607f1690610102565b634e487b7160e01b5f52604160045260245ffd5b015190505f806100cd565b601f198216905f8052805f20915f5b818110610308575095836001959697106102f0575b505050811b015f556100e1565b01515f1960f88460031b161c191690555f80806102e3565b9192602060018192868b0151815501940192016102ce565b5f80527f290decd9548b62a8d60345a988386fc84ba6bc95484008f6362f93160ef3e563601f830160051c81019160208410610378575b601f0160051c01905b81811061036d57506100b4565b5f8155600101610360565b9091508190610357565b90607f16906100a2565b5f80fd5b6040519190601f01601f191682016001600160401b038111838210176102a05760405256fe6080806040526004361015610012575f80fd5b5f3560e01c90816301ffc9a714610f145750806306fdde0314610e7257806307a43090146109ae578063081812fc14610972578063095ea7b31461088857806323b872dd1461087157806331921d871461084757806342842e0e14610818578063625cdead146107a15780636352211e1461077157806365fb1ee21461061257806370a08231146105c1578063715018a6146105665780638da5cb5b1461053e57806395d89b41146104745780639a3c63c01461044a578063a22cb465146103af578063b5588c6e146102ef578063b88d4fde14610259578063c87b56dd14610222578063dc1627eb146101fa578063e985e9c5146101a35763f2fde38b14610119575f80fd5b3461019f57602036600319011261019f57610132610fbd565b61013a6112a9565b6001600160a01b0316801561018c57600780546001600160a01b0319811683179091556001600160a01b03167f8be0079c531659141344cd1fd0a4f28419497f9722a3daafe3b4186f6b6457e05f80a3005b631e4fbdf760e01b5f525f60045260245ffd5b5f80fd5b3461019f57604036600319011261019f576101bc610fbd565b6101c4610fd3565b9060018060a01b03165f52600560205260405f209060018060a01b03165f52602052602060ff60405f2054166040519015158152f35b3461019f575f36600319011261019f576008546040516001600160a01b039091168152602090f35b3461019f57602036600319011261019f57610255610241600435611406565b604051918291602083526020830190610f99565b0390f35b3461019f57608036600319011261019f57610272610fbd565b61027a610fd3565b906044356064359267ffffffffffffffff841161019f573660238501121561019f578360040135926102ab84611045565b936102b96040519586611023565b808552366024828801011161019f576020815f9260246102ed990183890137860101526102e7838383611099565b336112d0565b005b3461019f57602036600319011261019f576004355f52600a60205260405f20604051905f9080549061032082611061565b80855291600181169081156103885750600114610348575b6102558461024181860382611023565b5f90815260208120939250905b80821061036e5750909150810160200161024182610338565b919260018160209254838588010152019101909291610355565b60ff191660208087019190915292151560051b850190920192506102419150839050610338565b3461019f57604036600319011261019f576103c8610fbd565b6024359081151580920361019f576001600160a01b031690811561043757335f52600560205260405f20825f5260205260405f2060ff1981541660ff83161790556040519081527f17307eab39ab6107e8899845ad3d59bd9653f200f220920489ca2b5937696c3160203392a3005b50630b61174360e31b5f5260045260245ffd5b3461019f57602036600319011261019f576004355f52600c602052602060405f2054604051908152f35b3461019f575f36600319011261019f576040515f60015461049481611061565b808452906001811690811561051a57506001146104bc575b6102558361024181850382611023565b91905060015f527fb10e2d527612073b26eecdfd717e6a320cf44b4afac2b0732d9fcbe2b7fa0cf6915f905b808210610500575090915081016020016102416104ac565b9192600181602092548385880101520191019092916104e8565b60ff191660208086019190915291151560051b8401909101915061024190506104ac565b3461019f575f36600319011261019f576007546040516001600160a01b039091168152602090f35b3461019f575f36600319011261019f5761057e6112a9565b600780546001600160a01b031981169091555f906001600160a01b03167f8be0079c531659141344cd1fd0a4f28419497f9722a3daafe3b4186f6b6457e08280a3005b3461019f57602036600319011261019f576001600160a01b036105e2610fbd565b1680156105ff575f526003602052602060405f2054604051908152f35b6322718ad960e21b5f525f60045260245ffd5b3461019f57604036600319011261019f5760243560043567ffffffffffffffff821161019f573660238301121561019f5781600401359067ffffffffffffffff821161019f57366024838501011161019f5761066c6112a9565b80156107625781156107535760c88211610744575f52600a60205260405f20906106a08161069a8454611061565b84611226565b5f601f82116001146106e05781906106ce93945f926106d2575b50508160011b915f199060031b1c19161790565b9055005b6024925001013584806106ba565b601f19821693835f5260205f20915f5b868110610729575083600195961061070d575b505050811b019055005b01602401355f19600384901b60f8161c19169055838080610703565b909260206001819260248787010135815501940191016106f0565b63b18bede760e01b5f5260045ffd5b6377f3541560e01b5f5260045ffd5b6337ff7d0f60e11b5f5260045ffd5b3461019f57602036600319011261019f57602061078f600435611275565b6040516001600160a01b039091168152f35b3461019f57602036600319011261019f576107ba610fbd565b6107c26112a9565b6001600160a01b0316801561080957600880546001600160a01b031916821790557f23d064e8743c7b6ccc2901ff570767b1a6aa908e7c01ef4af625ea7ecae965ba5f80a2005b630f217a9160e31b5f5260045ffd5b3461019f576102ed61082936610fe9565b9060405192610839602085611023565b5f84526102e7838383611099565b3461019f57602036600319011261019f576004355f52600b602052602060405f2054604051908152f35b3461019f576102ed61088236610fe9565b91611099565b3461019f57604036600319011261019f576108a1610fbd565b6024356108ad81611275565b3315158061095f575b80610932575b61091f5781906001600160a01b0384811691167f8c5be1e5ebec7d5bd14f71427d1e84f3dd0314c0f7b2291e5b200ac8c7c3b9255f80a45f90815260046020526040902080546001600160a01b0319166001600160a01b03909216919091179055005b63a9fbf51f60e01b5f523360045260245ffd5b506001600160a01b0381165f90815260056020908152604080832033845290915290205460ff16156108bc565b506001600160a01b0381163314156108b6565b3461019f57602036600319011261019f5760043561098f81611275565b505f526004602052602060018060a01b0360405f205416604051908152f35b3461019f57606036600319011261019f576109c7610fbd565b60085460443590602435906001600160a01b03163303610e6357811561076257815f52600a60205260405f209260405193845f825492610a0684611061565b8084529360018116908115610e415750600114610dfd575b50610a2b92500385611023565b8351156107535760c8845111610744576009549260018401808511610de957600955602094604051610a5d8782611023565b5f81526001600160a01b038416938415610dd6575f8781526002895260409020546001600160a01b03168015159081610da5575b865f5260038a5260405f2060018154019055885f5260028a5260405f20876bffffffffffffffffffffffff60a01b8254161790558887827fddf252ad1be2c89b69c2b068fc378daa952ba7f163c4a11628f55a4df523b3ef5f80a450610d92573b610c7a575b50845f526006865260405f209080519067ffffffffffffffff8211610c6657610b2a82610b248554611061565b85611226565b8790601f8311600114610bde57827f387bb3eb7501c3ed1b38da9521bab0a6604a0ec69bf681eab8c74ba6d3eea15a959360409593610b7d935f92610bd35750508160011b915f199060031b1c19161790565b90555b7ff8e1a15aba9398e019f0b49df1a4fde98ee17ae345cb5f6b5e2c27f5033e8ce7878351888152a1855f52600b875280825f2055855f52600c875284825f205581519081528587820152a3604051908152f35b015190508b806106ba565b90601f19831691845f52895f20925f5b8b828210610c505750509260019285927f387bb3eb7501c3ed1b38da9521bab0a6604a0ec69bf681eab8c74ba6d3eea15a98966040989610610c38575b505050811b019055610b80565b01515f1960f88460031b161c191690558a8080610c2b565b6001859682939686015181550195019301610bee565b634e487b7160e01b5f52604160045260245ffd5b86610cb891604098979695985180938192630a85bd0160e11b83523360048401525f6024840152896044840152608060648401526084830190610f99565b03815f8b5af15f9181610d52575b50610d1b5786863d15610d13573d90610cde82611045565b91610cec6040519384611023565b82523d5f8284013e5b81519182610d105783633250574960e11b5f5260045260245ffd5b01fd5b606090610cf5565b949593949293926001600160e01b03191663757a42ff60e11b01610d3f5786610af7565b82633250574960e11b5f5260045260245ffd5b9091508681813d8311610d8b575b610d6a8183611023565b8101031261019f57516001600160e01b03198116810361019f579088610cc6565b503d610d60565b6339e3563760e11b5f525f60045260245ffd5b5f8981526004602052604080822080546001600160a01b031916905582825260038c52902080545f19019055610a91565b633250574960e11b5f525f60045260245ffd5b634e487b7160e01b5f52601160045260245ffd5b90505f9291925260205f20905f915b818310610e25575050906020610a2b9282010187610a1e565b6020919350806001915483858b01015201910190918692610e0c565b905060209250610a2b94915060ff191682840152151560051b82010187610a1e565b6321d34ae360e01b5f5260045ffd5b3461019f575f36600319011261019f576040515f5f54610e9181611061565b808452906001811690811561051a5750600114610eb8576102558361024181850382611023565b5f8080527f290decd9548b62a8d60345a988386fc84ba6bc95484008f6362f93160ef3e563939250905b808210610efa575090915081016020016102416104ac565b919260018160209254838588010152019101909291610ee2565b3461019f57602036600319011261019f576004359063ffffffff60e01b821680920361019f57602091632483248360e11b8114908115610f56575b5015158152f35b6380ac58cd60e01b811491508115610f88575b8115610f77575b5083610f4f565b6301ffc9a760e01b14905083610f70565b635b5e139f60e01b81149150610f69565b805180835260209291819084018484015e5f828201840152601f01601f1916010190565b600435906001600160a01b038216820361019f57565b602435906001600160a01b038216820361019f57565b606090600319011261019f576004356001600160a01b038116810361019f57906024356001600160a01b038116810361019f579060443590565b90601f8019910116810190811067ffffffffffffffff821117610c6657604052565b67ffffffffffffffff8111610c6657601f01601f191660200190565b90600182811c9216801561108f575b602083101461107b57565b634e487b7160e01b5f52602260045260245ffd5b91607f1691611070565b6001600160a01b0390911691908215610dd6575f828152600260205260409020546001600160a01b031692829033151580611191575b508461115e575b805f52600360205260405f2060018154019055815f52600260205260405f20816bffffffffffffffffffffffff60a01b825416179055847fddf252ad1be2c89b69c2b068fc378daa952ba7f163c4a11628f55a4df523b3ef5f80a46001600160a01b031680830361114657505050565b6364283d7b60e01b5f5260045260245260445260645ffd5b5f82815260046020526040902080546001600160a01b0319169055845f52600360205260405f205f1981540190556110d6565b909150806111d5575b156111a75782905f6110cf565b82846111bf57637e27328960e01b5f5260045260245ffd5b63177e802f60e01b5f523360045260245260445ffd5b503384148015611204575b8061119a57505f838152600460205260409020546001600160a01b0316331461119a565b505f84815260056020908152604080832033845290915290205460ff166111e0565b601f821161123357505050565b5f5260205f20906020601f840160051c8301931061126b575b601f0160051c01905b818110611260575050565b5f8155600101611255565b909150819061124c565b5f818152600260205260409020546001600160a01b0316908115611297575090565b637e27328960e01b5f5260045260245ffd5b6007546001600160a01b031633036112bd57565b63118cdaa760e01b5f523360045260245ffd5b823b6112de575b5050505050565b604051630a85bd0160e11b81526001600160a01b03918216600482015291811660248301526044820193909352608060648201529116916020908290819061132a906084830190610f99565b03815f865af15f91816113c1575b5061138d57503d15611386573d61134e81611045565b9061135c6040519283611023565b81523d5f602083013e5b805190816113815782633250574960e11b5f5260045260245ffd5b602001fd5b6060611366565b6001600160e01b03191663757a42ff60e11b016113af57505f808080806112d7565b633250574960e11b5f5260045260245ffd5b9091506020813d6020116113fe575b816113dd60209383611023565b8101031261019f57516001600160e01b03198116810361019f57905f611338565b3d91506113d0565b61140f81611275565b505f52600660205260405f2060405190815f82549261142d84611061565b80845293600181169081156114a95750600114611465575b5061145292500382611023565b5f604051611461602082611023565b5290565b90505f9291925260205f20905f915b81831061148d575050906020611452928201015f611445565b6020919350806001915483858801015201910190918392611474565b90506020925061145294915060ff191682840152151560051b8201015f61144556fea2646970667358221220b4159a2780c8a0ded9cd9d46205d416f3aa565d6d92b731886ce175adc89246864736f6c634300081e0033000000000000000000000000a0d5aa61d273688e613ba08a931f6047298f8364",
        "nonce": "0x12f",
        "chainId": "0x128"
      },
      "additionalContracts": [],
      "isFixedGasLimit": false
    },
    {
      "hash": "0x5684d0cd472a9670623f9dba482571f4ef75507c277e148d664a3506af0a998b",
      "transactionType": "CREATE",
      "contractName": "QuestManager",
      "contractAddress": "0x6364fbda4469b6f84e3f2760ac5ac66c193b152b",
      "function": null,
      "arguments": [
        "0xa0D5aA61d273688e613bA08A931f6047298F8364",
        "0xE8090831Dc6F786f238f6FED55Fe3BfD072C8D44",
        "0x799C3db5118Fdc6Bf7e254b1662AaeB8a49ccaE5",
        "0xc991Bac9a471CB8ab541eCE23Df603f51f84BFbE",
        "0x0387d9685Ba5F06dc8F4BaC93e689546BCEEc133",
        "0x63d0f398d437191A4aE014E5CC844B094a5C5726"
      ],
      "transaction": {
        "from": "0xa0d5aa61d273688e613ba08a931f6047298f8364",
        "value": "0x0",
        "input": "0x6101203461019f57601f611a7b38819003918201601f19168301916001600160401b038311848410176101a35780849260c09460405283398101031261019f5780516001600160a01b038116919082900361019f576020810151906001600160a01b038216820361019f5760408101516001600160a01b038116810361019f576060820151906001600160a01b038216820361019f576080830151926001600160a01b038416840361019f5760a00151936001600160a01b038516850361019f57851561018c575f80546001600160a01b031981168817825560405197916001600160a01b03909116907f8be0079c531659141344cd1fd0a4f28419497f9722a3daafe3b4186f6b6457e09080a36001805560805260a05260c05260e052610100526118c390816101b8823960805181818161040f0152610b21015260a0518181816104a9015281816107090152818161075e01528181610ef50152611201015260c0518181816101470152611293015260e051818181610102015261132101526101005181610eb00152f35b631e4fbdf760e01b5f525f60045260245ffd5b5f80fd5b634e487b7160e01b5f52604160045260245ffdfe60806040526004361015610011575f80fd5b5f5f3560e01c806312977800146110a0578063139f399a14610f2457806327f9387f14610edf5780633652d20914610e9a57806349f86f3414610b505780635af586ca14610b0b5780635c52081a146103c0578063715018a6146103665780638da5cb5b1461033f5780639ecd577d146102be578063dbc877991461027f578063df0a6e44146101fc578063f2fde38b14610176578063f776220914610131578063f8ff0c92146100ec5763fe90ff7d146100ca575f80fd5b346100e95760203660031901126100e9576100e660043561169e565b80f35b80fd5b50346100e957806003193601126100e9576040517f00000000000000000000000000000000000000000000000000000000000000006001600160a01b03168152602090f35b50346100e957806003193601126100e9576040517f00000000000000000000000000000000000000000000000000000000000000006001600160a01b03168152602090f35b50346100e95760203660031901126100e95761019061152e565b610198611867565b6001600160a01b031680156101e85781546001600160a01b03198116821783556001600160a01b03167f8be0079c531659141344cd1fd0a4f28419497f9722a3daafe3b4186f6b6457e08380a380f35b631e4fbdf760e01b82526004829052602482fd5b50346100e95760403660031901126100e95761021661152e565b6024359081151580920361027b5760207fe1cc2f79795accf8613e535171309d9d4f70217200ea99871a5309fc4829048791610250611867565b6001600160a01b0316808552600482526040808620805460ff191660ff87161790555193845292a280f35b8280fd5b50346100e95760203660031901126100e95760209060ff906040906001600160a01b036102aa61152e565b168152600484522054166040519015158152f35b50346100e95760403660031901126100e95760406102da611518565b9180602083516102e9816115e2565b828152015260043581526003602052209060018060a01b03165f526020526040805f20815190610318826115e2565b5460ff6020818316151593848152019160081c161515815282519182525115156020820152f35b50346100e957806003193601126100e957546040516001600160a01b039091168152602090f35b50346100e957806003193601126100e95761037f611867565b80546001600160a01b03198116825581906001600160a01b03167f8be0079c531659141344cd1fd0a4f28419497f9722a3daafe3b4186f6b6457e08280a380f35b50346100e95760203660031901126100e9576001600160401b03600435116100e9576004353603610100600319820112610b075760405163baa04c7560e01b81523360048201526020816024817f00000000000000000000000000000000000000000000000000000000000000006001600160a01b03165afa908115610afc578391610ac6575b506084600435013515610a81576001600160a01b0361046a60043560e401611676565b1615610a32576001600160401b0361048660a46004350161168a565b16151580610a11575b6109cc5760405163709a795b60e01b8152916020836004817f00000000000000000000000000000000000000000000000000000000000000006001600160a01b03165afa928315610816578493610984575b506001600160a01b0383161561092e57600154926001840180851161091a57600190815584865260026020526040862084815590810180546001600160a01b031916331781559092906004803581013510156109165761054660043560040135611544565b805460ff60a01b1916600480359081013560a01b60ff60a01b169190911790915561057390602401611676565b6002840180546001600160a01b0319166001600160a01b0390921691909117905560043560448101356003850155606401359060221901811215610912576001600160401b036004828135010135116109125760048181350101353603602482600435010113610912576105ea600484015461163e565b601f81116108c7575b5085601f6004838135010135116001146108335786906004838135010135610821575b50600482813501013560011b9160045f1991813501013560031b1c19161760048301555b6005820180546001600160a01b0319166001600160a01b039092169190911790556004356084810135600683015560c4810135600783015561067e9060e401611676565b6008820180546001600160a01b0319166001600160a01b0390921691909117905560096106af60043560a40161168a565b9101805468ffffffffffffffffff19166001600160401b0390921691909117680100000000000000001770ffffffffffffffff00000000000000000019164260481b70ffffffffffffffff000000000000000000161790557f00000000000000000000000000000000000000000000000000000000000000006001600160a01b03163b1561027b5760405163c419403160e01b81526004808201849052356084013560248201528381604481837f00000000000000000000000000000000000000000000000000000000000000006001600160a01b03165af1801561081657610801575b50602092506107a6602460043501611676565b90604051916107ba60043560040135611544565b60048035013583526001600160a01b031684830152339183907f4d57cbabc4442a922bd00cd9454eb2d03a211f165a3a86369c309454a6df73fd90604090a4604051908152f35b61080c8480926115fd565b61027b575f610793565b6040513d86823e3d90fd5b6004358301016024013590505f610616565b6004840187526020872090875b6004803585010135601f191681106108a85750600192600492909183358301840135601f19811610610881575b50508135010135811b01600483015561063a565b6020845f1960f88287813501013560031b161c199285823501010101351690555f8061086d565b6024600435850183010135835560019092019160209182019101610840565b60048481018852602080892091803585010135601f810160051c8301911161090b575b601f830160051c820181106109005750506105f3565b8881556001016108ea565b50806108ea565b8580fd5b8680fd5b634e487b7160e01b86526011600452602486fd5b60405162461bcd60e51b815260206004820152602860248201527f51756573744d616e616765723a20726577617264207661756c7420756e696e696044820152671d1a585b1a5e995960c21b6064820152608490fd5b9092506020813d6020116109c4575b816109a0602093836115fd565b810103126109c057516001600160a01b03811681036109c057915f6104e1565b8380fd5b3d9150610993565b60405162461bcd60e51b815260206004820152601c60248201527f51756573744d616e616765723a20696e76616c696420657870697279000000006044820152606490fd5b50610a2060a46004350161168a565b6001600160401b03429116111561048f565b60405162461bcd60e51b815260206004820152602160248201527f51756573744d616e616765723a207061727469636970616e74206d697373696e6044820152606760f81b6064820152608490fd5b60405162461bcd60e51b815260206004820152601960248201527f51756573744d616e616765723a207a65726f20726577617264000000000000006044820152606490fd5b90506020813d602011610af4575b81610ae1602093836115fd565b81010312610af057515f610447565b5f80fd5b3d9150610ad4565b6040513d85823e3d90fd5b5080fd5b50346100e957806003193601126100e9576040517f00000000000000000000000000000000000000000000000000000000000000006001600160a01b03168152602090f35b50346100e95760203660031901126100e95760ff600435826101c0604051610b77816115b2565b828152826020820152826040820152826060820152826080820152606060a08201528260c08201528260e08201528261010082015282610120820152826101408201528261016082015282610180820152826101a082015201528083526002602052604083209060405193610beb856115b2565b82548552846001840154916020820195869360018060a01b038116855260a01c16946040830195610c1b81611544565b865260018060a01b0360028201541694606084019586526003820154966080850197885260048301966040518598805490610c558261163e565b8084529160018116908115610e775750600114610e35575b50508087989903610c7e90826115fd565b60a08701908152600160a01b600190036005860154169960c088019a8b5260068601549260e089019384526007870154946101008a019586526008880154986101208b0197600160a01b600190038b1689526101408c01998b60a01c63ffffffff168b526101608d019b60c01c63ffffffff168c52600901549d6101808f9d019c8d6001600160401b038216905260401c60ff169d6101a081019e8f610d2382611544565b526101c0019e8f9060481c6001600160401b03169052600160a01b6001900390511615610e225750506040519e8f9e8f9160208352516020830152600160a01b600190039051169060400152518d610d7a82611544565b60600152516001600160a01b031660808d01525160a08c0152516101e060c08c0152610dab906102008c0190611562565b98516001600160a01b0390811660e08c015290516101008b015290516101208a01529051166101408801525163ffffffff908116610160880152905116610180860152516001600160401b03166101a085015251610e0881611544565b6101c0840152516001600160401b03166101e08301520390f35b63c831523d60e01b825260045260249150fd5b87526020872096995089965b818b10610e58575050978801602001978087610c6d565b805460208c8501810191909152909a01998c99508d9850600101610e41565b8a9b9c50602092508493915060ff191682840152151560051b8201019998610c6d565b50346100e957806003193601126100e9576040517f00000000000000000000000000000000000000000000000000000000000000006001600160a01b03168152602090f35b50346100e957806003193601126100e9576040517f00000000000000000000000000000000000000000000000000000000000000006001600160a01b03168152602090f35b50346100e95760203660031901126100e95760043580825260026020526040822060018101546001600160a01b03161561108c576009810154600160ff8260401c16610f6f81611544565b03611078576001600160401b0316801515908161106e575b5061105a5781835260036020526040832060018060a01b0333165f52602052600860405f209101903360018060a01b038354160361104257805460ff811661102a5760ff19166001179055805463ffffffff60a01b610fef60a083901c63ffffffff16611586565b60a01b169063ffffffff60a01b191617905533907f7d422f3e3149564cf96cfeab23ae433b6b1d7259c2873096244209f9b40befee8380a380f35b63c3faaebb60e01b8552600484905233602452604485fd5b63a24cbb3f60e01b8452600483905233602452604484fd5b6302dc72d160e11b83526004829052602483fd5b905042115f610f87565b630813489560e01b84526004839052602484fd5b63c831523d60e01b83526004829052602483fd5b5034610af0576060366003190112610af0576004356110bd611518565b604435916001600160401b038311610af05736602384011215610af05782600401356001600160401b038111610af05760248401936024823692010111610af057335f52600460205260ff60405f20541615611505575f82815260026020526040902060018101549094906001600160a01b0316156114f25760098501948554600160ff8260401c1661114f81611544565b036114df576001600160401b031680151590816114d5575b506114c2575f8481526003602090815260408083206001600160a01b039889168085529252909120600883018054929790921687036114ab57805460ff8116156114945760ff8160081c1661147d5761ff001916610100179055805463ffffffff60c01b6111de60c083901c63ffffffff16611586565b60c01b1663ffffffff60c01b199190911617905560068101546001600160a01b037f00000000000000000000000000000000000000000000000000000000000000001690813b15610af0575f91606483926040519485938492630632eeeb60e01b84528b60048501528c602485015260448401525af180156114725761145d575b506007810154604051627a430960e41b815260048101879052602481018690526044810191909152879190602081606481867f00000000000000000000000000000000000000000000000000000000000000006001600160a01b03165af18015610afc5761142a575b50602061131d600a60266112db8961178b565b6040519485916538bab2b9ba1d60d11b828401528051918291018484015e8101690e98dbdb5c1b195d195960b21b8382015203016015198101845201826115fd565b90547f00000000000000000000000000000000000000000000000000000000000000006001600160a01b031691823b156109c0576113a4928492836040518096819582946356e920f360e01b845260048401528c6024840152605f604484015260a0606484015261139260a484018d8d61161e565b83810360031901608485015290611562565b03925af1801561141f5761140a575b50507fb7dc5068ee145e2b404988f1ccc019f7a1b12f153253e2b27af71e172013c85e916113ee60405192839260208452602084019161161e565b0390a3805460ff60401b19166802000000000000000017905580f35b81611414916115fd565b61091257855f6113b3565b6040513d84823e3d90fd5b91506020823d602011611455575b81611445602093836115fd565b81010312610af0578791516112c8565b3d9150611438565b61146a9197505f906115fd565b5f955f61125f565b6040513d5f823e3d90fd5b8787630f27843f60e01b5f5260045260245260445ffd5b8787635cd99bc560e11b5f5260045260245260445ffd5b868663a24cbb3f60e01b5f5260045260245260445ffd5b836302dc72d160e11b5f5260045260245ffd5b905042115f611167565b84630813489560e01b5f5260045260245ffd5b8263c831523d60e01b5f5260045260245ffd5b630df4d38560e41b5f523360045260245ffd5b602435906001600160a01b0382168203610af057565b600435906001600160a01b0382168203610af057565b6004111561154e57565b634e487b7160e01b5f52602160045260245ffd5b805180835260209291819084018484015e5f828201840152601f01601f1916010190565b63ffffffff60019116019063ffffffff821161159e57565b634e487b7160e01b5f52601160045260245ffd5b6101e081019081106001600160401b038211176115ce57604052565b634e487b7160e01b5f52604160045260245ffd5b604081019081106001600160401b038211176115ce57604052565b90601f801991011681019081106001600160401b038211176115ce57604052565b908060209392818452848401375f828201840152601f01601f1916010190565b90600182811c9216801561166c575b602083101461165857565b634e487b7160e01b5f52602260045260245ffd5b91607f169161164d565b356001600160a01b0381168103610af05790565b356001600160401b0381168103610af05790565b5f81815260026020526040902060018101546001600160a01b031680156114f2573314158061175c575b61174557600901805460ff8160401c166116e181611544565b60038114908115611731575b5061172c5760ff60401b1916680300000000000000001790557f8be3723411cc8577ee6cd118cbdbcefd5a0d748b4ce31edbbbad3b8a013cc7995f80a2565b505050565b6002915061173e81611544565b145f6116ed565b506311851fed60e21b5f526004523360245260445ffd5b505f546001600160a01b03163314156116c8565b6001600160401b0381116115ce57601f01601f191660200190565b8015611847575f81805b61183057506117a381611770565b906117b160405192836115fd565b808252601f196117c082611770565b013660208401375b80928015611829575f19820191821161159e578193600a8206603001928360301161159e578451111561181557600a9260f81b6001600160f81b0319165f1a908401601f015304916117c8565b634e487b7160e01b5f52603260045260245ffd5b5050905090565b905f19811461159e576001600a9101910480611795565b506040516118566040826115fd565b60018152600360fc1b602082015290565b5f546001600160a01b0316330361187a57565b63118cdaa760e01b5f523360045260245ffdfea2646970667358221220c84fe2c1b295b178412a82c55e317de09359f5680380b73a96b65335cbc8190064736f6c634300081e0033000000000000000000000000a0d5aa61d273688e613ba08a931f6047298f8364000000000000000000000000e8090831dc6f786f238f6fed55fe3bfd072c8d44000000000000000000000000799c3db5118fdc6bf7e254b1662aaeb8a49ccae5000000000000000000000000c991bac9a471cb8ab541ece23df603f51f84bfbe0000000000000000000000000387d9685ba5f06dc8f4bac93e689546bceec13300000000000000000000000063d0f398d437191a4ae014e5cc844b094a5c5726",
        "nonce": "0x130",
        "chainId": "0x128"
      },
      "additionalContracts": [],
      "isFixedGasLimit": false
    },
    {
      "hash": "0x2cef6b052d04a405728934b798cccb83856c7c093344985fa3ca909bb6b83560",
      "transactionType": "CALL",
      "contractName": "MedqToken",
      "contractAddress": "0x7b2ff9782b29eeed547e43260fbf8250d8527c3b",
      "function": "grantMinterRole(address)",
      "arguments": [
        "0x799C3db5118Fdc6Bf7e254b1662AaeB8a49ccaE5"
      ],
      "transaction": {
        "from": "0xa0d5aa61d273688e613ba08a931f6047298f8364",
        "to": "0x7b2ff9782b29eeed547e43260fbf8250d8527c3b",
        "value": "0x0",
        "input": "0x3dd1eb61000000000000000000000000799c3db5118fdc6bf7e254b1662aaeb8a49ccae5",
        "nonce": "0x131",
        "chainId": "0x128"
      },
      "additionalContracts": [],
      "isFixedGasLimit": false
    },
    {
      "hash": "0xba145c4a970259329ebf31087694faefb44c2b9e37f34d8b6e68d0d36b9e56e0",
      "transactionType": "CALL",
      "contractName": "RewardVault",
      "contractAddress": "0x799c3db5118fdc6bf7e254b1662aaeb8a49ccae5",
      "function": "setMedqToken(address)",
      "arguments": [
        "0x7b2ff9782b29EeED547E43260Fbf8250D8527c3B"
      ],
      "transaction": {
        "from": "0xa0d5aa61d273688e613ba08a931f6047298f8364",
        "to": "0x799c3db5118fdc6bf7e254b1662aaeb8a49ccae5",
        "value": "0x0",
        "input": "0x310e84240000000000000000000000007b2ff9782b29eeed547e43260fbf8250d8527c3b",
        "nonce": "0x132",
        "chainId": "0x128"
      },
      "additionalContracts": [],
      "isFixedGasLimit": false
    },
    {
      "hash": "0xf7dd4c4331046d34eb8b9af99530a3a607d058d61c0622f9dab861e11dbe952c",
      "transactionType": "CALL",
      "contractName": "ReputationRegistry",
      "contractAddress": "0x0387d9685ba5f06dc8f4bac93e689546bceec133",
      "function": "setReviewerAuthorization(address,bool)",
      "arguments": [
        "0x6364FBDa4469b6f84E3F2760aC5ac66c193B152b",
        "true"
      ],
      "transaction": {
        "from": "0xa0d5aa61d273688e613ba08a931f6047298f8364",
        "to": "0x0387d9685ba5f06dc8f4bac93e689546bceec133",
        "value": "0x0",
        "input": "0x42faaaaf0000000000000000000000006364fbda4469b6f84e3f2760ac5ac66c193b152b0000000000000000000000000000000000000000000000000000000000000001",
        "nonce": "0x133",
        "chainId": "0x128"
      },
      "additionalContracts": [],
      "isFixedGasLimit": false
    },
    {
      "hash": "0xf665644023aef733769195a698ac68f33150412b166c6bedb006d9c27a96f241",
      "transactionType": "CALL",
      "contractName": "RewardVault",
      "contractAddress": "0x799c3db5118fdc6bf7e254b1662aaeb8a49ccae5",
      "function": "setQuestManager(address)",
      "arguments": [
        "0x6364FBDa4469b6f84E3F2760aC5ac66c193B152b"
      ],
      "transaction": {
        "from": "0xa0d5aa61d273688e613ba08a931f6047298f8364",
        "to": "0x799c3db5118fdc6bf7e254b1662aaeb8a49ccae5",
        "value": "0x0",
        "input": "0x625cdead0000000000000000000000006364fbda4469b6f84e3f2760ac5ac66c193b152b",
        "nonce": "0x134",
        "chainId": "0x128"
      },
      "additionalContracts": [],
      "isFixedGasLimit": false
    },
    {
      "hash": "0x9fb5a5532e9eb33c38fd7b16d987910f8f398923d98ebeac37b032c847690a4f",
      "transactionType": "CALL",
      "contractName": "BadgeNFT",
      "contractAddress": "0xc991bac9a471cb8ab541ece23df603f51f84bfbe",
      "function": "setQuestManager(address)",
      "arguments": [
        "0x6364FBDa4469b6f84E3F2760aC5ac66c193B152b"
      ],
      "transaction": {
        "from": "0xa0d5aa61d273688e613ba08a931f6047298f8364",
        "to": "0xc991bac9a471cb8ab541ece23df603f51f84bfbe",
        "value": "0x0",
        "input": "0x625cdead0000000000000000000000006364fbda4469b6f84e3f2760ac5ac66c193b152b",
        "nonce": "0x135",
        "chainId": "0x128"
      },
      "additionalContracts": [],
      "isFixedGasLimit": false
    },
    {
      "hash": "0x759ae4380f463f3d7fe8572dfd8f95312c1ff8ca95cde56a9a314407801f024d",
      "transactionType": "CALL",
      "contractName": "BadgeNFT",
      "contractAddress": "0xc991bac9a471cb8ab541ece23df603f51f84bfbe",
      "function": "setBadgeURI(uint256,string)",
      "arguments": [
        "1",
        "ipfs://bafkreihpk4e7are4vy2ta2jjykezijqwnhi2mrflr6bxnhn4o36isudahq"
      ],
      "transaction": {
        "from": "0xa0d5aa61d273688e613ba08a931f6047298f8364",
        "to": "0xc991bac9a471cb8ab541ece23df603f51f84bfbe",
        "value": "0x0",
        "input": "0x65fb1ee2000000000000000000000000000000000000000000000000000000000000000100000000000000000000000000000000000000000000000000000000000000400000000000000000000000000000000000000000000000000000000000000042697066733a2f2f6261666b72656968706b346537617265347679327461326a6a796b657a696a71776e6869326d72666c723662786e686e346f333669737564616871000000000000000000000000000000000000000000000000000000000000",
        "nonce": "0x136",
        "chainId": "0x128"
      },
      "additionalContracts": [],
      "isFixedGasLimit": false
    },
    {
      "hash": "0x036edc98126095928f92bd8fa95ac7e9bbd4c1b790c0c8d8f1aafcf3e6956958",
      "transactionType": "CALL",
      "contractName": "BadgeNFT",
      "contractAddress": "0xc991bac9a471cb8ab541ece23df603f51f84bfbe",
      "function": "setBadgeURI(uint256,string)",
      "arguments": [
        "2",
        "ipfs://bafkreihvru352dw5b4qyslzvkcsf5qm7cw3k3y262gcq4e4evvbqzulf6q"
      ],
      "transaction": {
        "from": "0xa0d5aa61d273688e613ba08a931f6047298f8364",
        "to": "0xc991bac9a471cb8ab541ece23df603f51f84bfbe",
        "value": "0x0",
        "input": "0x65fb1ee2000000000000000000000000000000000000000000000000000000000000000200000000000000000000000000000000000000000000000000000000000000400000000000000000000000000000000000000000000000000000000000000042697066733a2f2f6261666b7265696876727533353264773562347179736c7a766b63736635716d376377336b337932363267637134653465767662717a756c663671000000000000000000000000000000000000000000000000000000000000",
        "nonce": "0x137",
        "chainId": "0x128"
      },
      "additionalContracts": [],
      "isFixedGasLimit": false
    },
    {
      "hash": "0x33fb1db354bf7be16ac8816e36201fead7626c2deeeed39b7330e62e7183030a",
      "transactionType": "CALL",
      "contractName": "BadgeNFT",
      "contractAddress": "0xc991bac9a471cb8ab541ece23df603f51f84bfbe",
      "function": "setBadgeURI(uint256,string)",
      "arguments": [
        "3",
        "ipfs://bafkreic6lhhm4j62em3jzepbqg3ughcpv7izovujxvjvq4qy6u7qauhwoq"
      ],
      "transaction": {
        "from": "0xa0d5aa61d273688e613ba08a931f6047298f8364",
        "to": "0xc991bac9a471cb8ab541ece23df603f51f84bfbe",
        "value": "0x0",
        "input": "0x65fb1ee2000000000000000000000000000000000000000000000000000000000000000300000000000000000000000000000000000000000000000000000000000000400000000000000000000000000000000000000000000000000000000000000042697066733a2f2f6261666b72656963366c68686d346a3632656d336a7a65706271673375676863707637697a6f76756a78766a767134717936753771617568776f71000000000000000000000000000000000000000000000000000000000000",
        "nonce": "0x138",
        "chainId": "0x128"
      },
      "additionalContracts": [],
      "isFixedGasLimit": false
    },
    {
      "hash": "0x42ad112b3dfd5193429f9e0c06a408d8f0bbfd0f6ea132a53fd314543b1ab706",
      "transactionType": "CALL",
      "contractName": "BadgeNFT",
      "contractAddress": "0xc991bac9a471cb8ab541ece23df603f51f84bfbe",
      "function": "setBadgeURI(uint256,string)",
      "arguments": [
        "4",
        "ipfs://bafkreigzbzacffjlnermzlnynei552tf3djuxgsixsro4hvmpcuyohonf4"
      ],
      "transaction": {
        "from": "0xa0d5aa61d273688e613ba08a931f6047298f8364",
        "to": "0xc991bac9a471cb8ab541ece23df603f51f84bfbe",
        "value": "0x0",
        "input": "0x65fb1ee2000000000000000000000000000000000000000000000000000000000000000400000000000000000000000000000000000000000000000000000000000000400000000000000000000000000000000000000000000000000000000000000042697066733a2f2f6261666b726569677a627a616366666a6c6e65726d7a6c6e796e6569353532746633646a75786773697873726f3468766d706375796f686f6e6634000000000000000000000000000000000000000000000000000000000000",
        "nonce": "0x139",
        "chainId": "0x128"
      },
      "additionalContracts": [],
      "isFixedGasLimit": false
    },
    {
      "hash": "0x690d14be98f7cf8a45f189a2adbec52421e97d918fb59e6dc8ebe6aad3d15010",
      "transactionType": "CALL",
      "contractName": "BadgeNFT",
      "contractAddress": "0xc991bac9a471cb8ab541ece23df603f51f84bfbe",
      "function": "setBadgeURI(uint256,string)",
      "arguments": [
        "5",
        "ipfs://bafkreihmqr3haexn5wmktsfhejotpwwpuc7urnr3cvi7h3p57ggz2dns2i"
      ],
      "transaction": {
        "from": "0xa0d5aa61d273688e613ba08a931f6047298f8364",
        "to": "0xc991bac9a471cb8ab541ece23df603f51f84bfbe",
        "value": "0x0",
        "input": "0x65fb1ee2000000000000000000000000000000000000000000000000000000000000000500000000000000000000000000000000000000000000000000000000000000400000000000000000000000000000000000000000000000000000000000000042697066733a2f2f6261666b726569686d717233686165786e35776d6b74736668656a6f747077777075633775726e723363766937683370353767677a32646e733269000000000000000000000000000000000000000000000000000000000000",
        "nonce": "0x13a",
        "chainId": "0x128"
      },
      "additionalContracts": [],
      "isFixedGasLimit": false
    },
    {
      "hash": "0xda1a24ff620990c05b4bb668c51e76afa6d79eab880bcce9102bd7a4d5a4db22",
      "transactionType": "CALL",
      "contractName": "BadgeNFT",
      "contractAddress": "0xc991bac9a471cb8ab541ece23df603f51f84bfbe",
      "function": "setBadgeURI(uint256,string)",
      "arguments": [
        "6",
        "ipfs://bafkreidhrxrkkca5livv7zr6r4dvoexgyg4i2t4mw4t5qpdf2a6hlfezra"
      ],
      "transaction": {
        "from": "0xa0d5aa61d273688e613ba08a931f6047298f8364",
        "to": "0xc991bac9a471cb8ab541ece23df603f51f84bfbe",
        "value": "0x0",
        "input": "0x65fb1ee2000000000000000000000000000000000000000000000000000000000000000600000000000000000000000000000000000000000000000000000000000000400000000000000000000000000000000000000000000000000000000000000042697066733a2f2f6261666b72656964687278726b6b6361356c697676377a7236723464766f657867796734693274346d7734743571706466326136686c66657a7261000000000000000000000000000000000000000000000000000000000000",
        "nonce": "0x13b",
        "chainId": "0x128"
      },
      "additionalContracts": [],
      "isFixedGasLimit": false
    },
    {
      "hash": "0xa93ebaf8240494bb1607417e0251e94d12492c295ac3b141e792dd808761546c",
      "transactionType": "CALL",
      "contractName": "BadgeNFT",
      "contractAddress": "0xc991bac9a471cb8ab541ece23df603f51f84bfbe",
      "function": "setBadgeURI(uint256,string)",
      "arguments": [
        "7",
        "ipfs://bafkreiagxgdvyvxv5rop66gtuvkzgaw4pei2zph2lxb24kxne4bfmfbsle"
      ],
      "transaction": {
        "from": "0xa0d5aa61d273688e613ba08a931f6047298f8364",
        "to": "0xc991bac9a471cb8ab541ece23df603f51f84bfbe",
        "value": "0x0",
        "input": "0x65fb1ee2000000000000000000000000000000000000000000000000000000000000000700000000000000000000000000000000000000000000000000000000000000400000000000000000000000000000000000000000000000000000000000000042697066733a2f2f6261666b7265696167786764767976787635726f703636677475766b7a67617734706569327a7068326c786232346b786e653462666d6662736c65000000000000000000000000000000000000000000000000000000000000",
        "nonce": "0x13c",
        "chainId": "0x128"
      },
      "additionalContracts": [],
      "isFixedGasLimit": false
    },
    {
      "hash": "0x2facd2bac675e5be70c5502a2838cbca37740119585c1c26c446284c04d80874",
      "transactionType": "CALL",
      "contractName": "BadgeNFT",
      "contractAddress": "0xc991bac9a471cb8ab541ece23df603f51f84bfbe",
      "function": "setBadgeURI(uint256,string)",
      "arguments": [
        "8",
        "ipfs://bafkreibwqzpefyq3gdj3mqt53m6yqrt2ttwa37osx7qnp44prcfjdcd3mq"
      ],
      "transaction": {
        "from": "0xa0d5aa61d273688e613ba08a931f6047298f8364",
        "to": "0xc991bac9a471cb8ab541ece23df603f51f84bfbe",
        "value": "0x0",
        "input": "0x65fb1ee2000000000000000000000000000000000000000000000000000000000000000800000000000000000000000000000000000000000000000000000000000000400000000000000000000000000000000000000000000000000000000000000042697066733a2f2f6261666b7265696277717a70656679713367646a336d717435336d3679717274327474776133376f737837716e703434707263666a646364336d71000000000000000000000000000000000000000000000000000000000000",
        "nonce": "0x13d",
        "chainId": "0x128"
      },
      "additionalContracts": [],
      "isFixedGasLimit": false
    },
    {
      "hash": "0x7b674613c3d1b5076cf95e5949e9de66e08b50eb6bdb7605165a47d54eab9bd5",
      "transactionType": "CALL",
      "contractName": "BadgeNFT",
      "contractAddress": "0xc991bac9a471cb8ab541ece23df603f51f84bfbe",
      "function": "setBadgeURI(uint256,string)",
      "arguments": [
        "9",
        "ipfs://bafkreighkh6ww4u3354ja6xx4ahct7n2lx6ba7blimfff4g5s2mgox3u2q"
      ],
      "transaction": {
        "from": "0xa0d5aa61d273688e613ba08a931f6047298f8364",
        "to": "0xc991bac9a471cb8ab541ece23df603f51f84bfbe",
        "value": "0x0",
        "input": "0x65fb1ee2000000000000000000000000000000000000000000000000000000000000000900000000000000000000000000000000000000000000000000000000000000400000000000000000000000000000000000000000000000000000000000000042697066733a2f2f6261666b72656967686b683677773475333335346a613678783461686374376e326c7836626137626c696d66666634673573326d676f7833753271000000000000000000000000000000000000000000000000000000000000",
        "nonce": "0x13e",
        "chainId": "0x128"
      },
      "additionalContracts": [],
      "isFixedGasLimit": false
    },
    {
      "hash": "0x62812cfcfb208620437c81a617905e3723fa177d1a4f704800f553a3ffaa9891",
      "transactionType": "CALL",
      "contractName": "BadgeNFT",
      "contractAddress": "0xc991bac9a471cb8ab541ece23df603f51f84bfbe",
      "function": "setBadgeURI(uint256,string)",
      "arguments": [
        "10",
        "ipfs://bafkreie5qf24hp4xm7l2gjbjkjr4re7ubs7uoqm6sxo3wkyri3kbghi2qe"
      ],
      "transaction": {
        "from": "0xa0d5aa61d273688e613ba08a931f6047298f8364",
        "to": "0xc991bac9a471cb8ab541ece23df603f51f84bfbe",
        "value": "0x0",
        "input": "0x65fb1ee2000000000000000000000000000000000000000000000000000000000000000a00000000000000000000000000000000000000000000000000000000000000400000000000000000000000000000000000000000000000000000000000000042697066733a2f2f6261666b726569653571663234687034786d376c32676a626a6b6a723472653775627337756f716d3673786f33776b797269336b62676869327165000000000000000000000000000000000000000000000000000000000000",
        "nonce": "0x13f",
        "chainId": "0x128"
      },
      "additionalContracts": [],
      "isFixedGasLimit": false
    },
    {
      "hash": "0xcdc7316c07a53998a5a34f74eac0f64172e268c761b5ca82a21d600dd148d786",
      "transactionType": "CALL",
      "contractName": "QuestManager",
      "contractAddress": "0x6364fbda4469b6f84e3f2760ac5ac66c193b152b",
      "function": "setCompletionOracle(address,bool)",
      "arguments": [
        "0xfDf033Ed041ce4F70c534fF8d79ac7B05681f9bc",
        "true"
      ],
      "transaction": {
        "from": "0xa0d5aa61d273688e613ba08a931f6047298f8364",
        "to": "0x6364fbda4469b6f84e3f2760ac5ac66c193b152b",
        "value": "0x0",
        "input": "0xdf0a6e44000000000000000000000000fdf033ed041ce4f70c534ff8d79ac7b05681f9bc0000000000000000000000000000000000000000000000000000000000000001",
        "nonce": "0x140",
        "chainId": "0x128"
      },
      "additionalContracts": [],
      "isFixedGasLimit": false
    }
  ],
  "receipts": [
    {
      "status": "0x1",
      "cumulativeGasUsed": "0x167298",
      "logs": [
        {
          "address": "0x36de27419ae1f0afa86e6644be64f8627273e22f",
          "topics": [
            "0x8be0079c531659141344cd1fd0a4f28419497f9722a3daafe3b4186f6b6457e0",
            "0x0000000000000000000000000000000000000000000000000000000000000000",
            "0x000000000000000000000000a0d5aa61d273688e613ba08a931f6047298f8364"
          ],
          "data": "0x",
          "blockHash": "0xf4ededd0f7d30694a37dd8aac5db3141b4e001cb50677c0cad8f1299d890e4ae",
          "blockNumber": "0x1a831e5",
          "blockTimestamp": "0x691f1c7d",
          "transactionHash": "0x06b440f42406373d3bad2e4ea12b8db5d0bb276e869f8e8fe25a1116977efcf8",
          "transactionIndex": "0x9",
          "logIndex": "0x1",
          "removed": false
        }
      ],
      "logsBloom": "0x00000000000000000000000000000000000000000000000000800000000000000000000000000000000000000000000000000000000000000000000000000000400000000000000000000000000000000001000000000000000000000000000000000000020000800000000000100888000000000000000000000000000000400000000000000000000000000000000000000000000000000000000000000000000000000000000000000000000000000000000000000000001000000000000000000000000000000000000000000000000000000000000000000000000020000000000000000000000000000000000000000000000000000000000000000000",
      "type": "0x2",
      "transactionHash": "0x06b440f42406373d3bad2e4ea12b8db5d0bb276e869f8e8fe25a1116977efcf8",
      "transactionIndex": "0x9",
      "blockHash": "0xf4ededd0f7d30694a37dd8aac5db3141b4e001cb50677c0cad8f1299d890e4ae",
      "blockNumber": "0x1a831e5",
      "gasUsed": "0x14fea7",
      "effectiveGasPrice": "0x870ab1a800",
      "from": "0xa0d5aa61d273688e613ba08a931f6047298f8364",
      "to": null,
      "contractAddress": "0x36de27419ae1f0afa86e6644be64f8627273e22f",
      "root": "0x56e81f171bcc55a6ff8345e692c0f86e5b48e01b996cadc001622fb5e363b421"
    },
    {
      "status": "0x1",
      "cumulativeGasUsed": "0xcdda1",
      "logs": [
        {
          "address": "0x0387d9685ba5f06dc8f4bac93e689546bceec133",
          "topics": [
            "0x8be0079c531659141344cd1fd0a4f28419497f9722a3daafe3b4186f6b6457e0",
            "0x0000000000000000000000000000000000000000000000000000000000000000",
            "0x000000000000000000000000a0d5aa61d273688e613ba08a931f6047298f8364"
          ],
          "data": "0x",
          "blockHash": "0xa6548b216dfde74dc062a617a25a8c914dd7613ec2eeb857fc7c8ca6fe2f8148",
          "blockNumber": "0x1a831e8",
          "blockTimestamp": "0x691f1c83",
          "transactionHash": "0x2497d28fec0aa8856606d2087fdcd74754e4c30726dea65e2c0e2dd8aa620175",
          "transactionIndex": "0x7",
          "logIndex": "0x1",
          "removed": false
        }
      ],
      "logsBloom": "0x00000000000000000000000000000000000000000000010000800000000000000000000000000000000000000000000000000040000000000000000000000000400000000000000000004000000000000001000000000000000000000000000000000000020000000000000000100800000000000000000000000000000000400000000000000000000000000000000000000000000000000000000000000000000000000000000000000000000000000000000000000000001000000000000000000000000000000000000000000000000000000000000000000000000020000000000000000000000000000000000000000000000000000000000000000000",
      "type": "0x2",
      "transactionHash": "0x2497d28fec0aa8856606d2087fdcd74754e4c30726dea65e2c0e2dd8aa620175",
      "transactionIndex": "0x7",
      "blockHash": "0xa6548b216dfde74dc062a617a25a8c914dd7613ec2eeb857fc7c8ca6fe2f8148",
      "blockNumber": "0x1a831e8",
      "gasUsed": "0xb69a4",
      "effectiveGasPrice": "0x870ab1a800",
      "from": "0xa0d5aa61d273688e613ba08a931f6047298f8364",
      "to": null,
      "contractAddress": "0x0387d9685ba5f06dc8f4bac93e689546bceec133",
      "root": "0x56e81f171bcc55a6ff8345e692c0f86e5b48e01b996cadc001622fb5e363b421"
    },
    {
      "status": "0x1",
      "cumulativeGasUsed": "0xbb58f",
      "logs": [
        {
          "address": "0x63d0f398d437191a4ae014e5cc844b094a5c5726",
          "topics": [
            "0x8be0079c531659141344cd1fd0a4f28419497f9722a3daafe3b4186f6b6457e0",
            "0x0000000000000000000000000000000000000000000000000000000000000000",
            "0x000000000000000000000000a0d5aa61d273688e613ba08a931f6047298f8364"
          ],
          "data": "0x",
          "blockHash": "0xf40fde816d2dac1e6feb7174af931e072824c55079eff8cbe98853e6f33b27e3",
          "blockNumber": "0x1a831eb",
          "blockTimestamp": "0x691f1c88",
          "transactionHash": "0xcd3bdf077d64e68adca6cad2eca4a3afda5f5c5d77a6383c5584785e7d70856c",
          "transactionIndex": "0x5",
          "logIndex": "0x0",
          "removed": false
        }
      ],
      "logsBloom": "0x00000000000000000000000000000000000000000000000000800000000000000000000000000000000000000000000000000000000000000000000000000000400000000000000000000000000000000001000000000000000000000000000000000000020000000000000000100800000000000000000000000000000000400000020000000000000000000000000000100000000000000000000000000000000000000000000000000000000000000000000000000000001000000000000000000000000000000000000000000000000000000000000000000000000020002000000000000000000000000000000000000000000000000000000000000000",
      "type": "0x2",
      "transactionHash": "0xcd3bdf077d64e68adca6cad2eca4a3afda5f5c5d77a6383c5584785e7d70856c",
      "transactionIndex": "0x5",
      "blockHash": "0xf40fde816d2dac1e6feb7174af931e072824c55079eff8cbe98853e6f33b27e3",
      "blockNumber": "0x1a831eb",
      "gasUsed": "0xa81b6",
      "effectiveGasPrice": "0x870ab1a800",
      "from": "0xa0d5aa61d273688e613ba08a931f6047298f8364",
      "to": null,
      "contractAddress": "0x63d0f398d437191a4ae014e5cc844b094a5c5726",
      "root": "0x56e81f171bcc55a6ff8345e692c0f86e5b48e01b996cadc001622fb5e363b421"
    },
    {
      "status": "0x1",
      "cumulativeGasUsed": "0x47e61",
      "logs": [],
      "logsBloom": "0x00000000000000000000000000000000000000000000000000000000000000000000000000000000000000000000000000000000000000000000000000000000000000000000000000000000000000000000000000000000000000000000000000000000000000000000000000000000000000000000000000000000000000000000000000000000000000000000000000000000000000000000000000000000000000000000000000000000000000000000000000000000000000000000000000000000000000000000000000000000000000000000000000000000000000000000000000000000000000000000000000000000000000000000000000000000",
      "type": "0x2",
      "transactionHash": "0x55b6eba46c53b7ffaa49df6c160f7372e126ae4bb357f2108695af8e6bf731df",
      "transactionIndex": "0x0",
      "blockHash": "0xed7cef1d94cdc8b2d7981b71c8eaca5348c9d084251c0c84842300678f4742f5",
      "blockNumber": "0x1a831ee",
      "gasUsed": "0x2bf82",
      "effectiveGasPrice": "0x870ab1a800",
      "from": "0xa0d5aa61d273688e613ba08a931f6047298f8364",
      "to": null,
      "contractAddress": "0xe8090831dc6f786f238f6fed55fe3bfd072c8d44",
      "root": "0x56e81f171bcc55a6ff8345e692c0f86e5b48e01b996cadc001622fb5e363b421"
    },
    {
      "status": "0x1",
      "cumulativeGasUsed": "0xfb1e5",
      "logs": [
        {
          "address": "0x7b2ff9782b29eeed547e43260fbf8250d8527c3b",
          "topics": [
            "0x2f8788117e7eff1d82e926ec794901d17c78024a50270940304540a733656f0d",
            "0x0000000000000000000000000000000000000000000000000000000000000000",
            "0x000000000000000000000000a0d5aa61d273688e613ba08a931f6047298f8364",
            "0x000000000000000000000000a0d5aa61d273688e613ba08a931f6047298f8364"
          ],
          "data": "0x",
          "blockHash": "0x8230d1095678ff364b6ca5be2094ab53fd84c07a07be347364de1f619c81e499",
          "blockNumber": "0x1a831f2",
          "blockTimestamp": "0x691f1c97",
          "transactionHash": "0x342051206e071bc44f54c6b6fc0c51cda24fe6775036eca302ded70427dde0bf",
          "transactionIndex": "0x10",
          "logIndex": "0x1",
          "removed": false
        },
        {
          "address": "0x7b2ff9782b29eeed547e43260fbf8250d8527c3b",
          "topics": [
            "0x2f8788117e7eff1d82e926ec794901d17c78024a50270940304540a733656f0d",
            "0x9f2df0fed2c77648de5860a4cc508cd0818c85b8b8a1ab4ceeef8d981c8956a6",
            "0x000000000000000000000000a0d5aa61d273688e613ba08a931f6047298f8364",
            "0x000000000000000000000000a0d5aa61d273688e613ba08a931f6047298f8364"
          ],
          "data": "0x",
          "blockHash": "0x8230d1095678ff364b6ca5be2094ab53fd84c07a07be347364de1f619c81e499",
          "blockNumber": "0x1a831f2",
          "blockTimestamp": "0x691f1c97",
          "transactionHash": "0x342051206e071bc44f54c6b6fc0c51cda24fe6775036eca302ded70427dde0bf",
          "transactionIndex": "0x10",
          "logIndex": "0x2",
          "removed": false
        },
        {
          "address": "0x7b2ff9782b29eeed547e43260fbf8250d8527c3b",
          "topics": [
            "0x2f8788117e7eff1d82e926ec794901d17c78024a50270940304540a733656f0d",
            "0x3c11d16cbaffd01df69ce1c404f6340ee057498f5f00246190ea54220576a848",
            "0x000000000000000000000000a0d5aa61d273688e613ba08a931f6047298f8364",
            "0x000000000000000000000000a0d5aa61d273688e613ba08a931f6047298f8364"
          ],
          "data": "0x",
          "blockHash": "0x8230d1095678ff364b6ca5be2094ab53fd84c07a07be347364de1f619c81e499",
          "blockNumber": "0x1a831f2",
          "blockTimestamp": "0x691f1c97",
          "transactionHash": "0x342051206e071bc44f54c6b6fc0c51cda24fe6775036eca302ded70427dde0bf",
          "transactionIndex": "0x10",
          "logIndex": "0x3",
          "removed": false
        }
      ],
      "logsBloom": "0x00000004000010000000000000000000000000000000000000000000000000000000000000000000000000000000004000000000000000000000000000000000400000000000000000000000000000000000000000000000000010000000000000000000020000000000000000100800000000000000000000000000001000000000000000000000000000000000000000000000000000000000000000000000000000000000000000000000000000000000000000004000001008000000000000040000000000000000000000000000001000000000000100000000000020000020000000000000000000000000000000000000000000000000000000000000",
      "type": "0x2",
      "transactionHash": "0x342051206e071bc44f54c6b6fc0c51cda24fe6775036eca302ded70427dde0bf",
      "transactionIndex": "0x10",
      "blockHash": "0x8230d1095678ff364b6ca5be2094ab53fd84c07a07be347364de1f619c81e499",
      "blockNumber": "0x1a831f2",
      "gasUsed": "0xef94f",
      "effectiveGasPrice": "0x870ab1a800",
      "from": "0xa0d5aa61d273688e613ba08a931f6047298f8364",
      "to": null,
      "contractAddress": "0x7b2ff9782b29eeed547e43260fbf8250d8527c3b",
      "root": "0x56e81f171bcc55a6ff8345e692c0f86e5b48e01b996cadc001622fb5e363b421"
    },
    {
      "status": "0x1",
      "cumulativeGasUsed": "0x9fb1e",
      "logs": [
        {
          "address": "0x799c3db5118fdc6bf7e254b1662aaeb8a49ccae5",
          "topics": [
            "0x8be0079c531659141344cd1fd0a4f28419497f9722a3daafe3b4186f6b6457e0",
            "0x0000000000000000000000000000000000000000000000000000000000000000",
            "0x000000000000000000000000a0d5aa61d273688e613ba08a931f6047298f8364"
          ],
          "data": "0x",
          "blockHash": "0xfbea5468309aa0e0655cbed4cfb1796ec79b78da0599003d868b5090196d2e0f",
          "blockNumber": "0x1a831f5",
          "blockTimestamp": "0x691f1c9c",
          "transactionHash": "0x655b4a04fa7b5af7db8be90d69c9e943624f4c479a7f986e2374ba7f6c7b4e43",
          "transactionIndex": "0x22",
          "logIndex": "0x2",
          "removed": false
        }
      ],
      "logsBloom": "0x00000000000000000000000000000000000000000000000000800000000000000000000000000000000000000000000000001000000000000000000000010000400000000000000000000000000000000001000400000000000000000000000000000000020000000000000000100800000000000000000000000000000000400000000000000000000000000000000000000000000000000000000000000000000000000000000000000000000000000000000000000000001000000000000000000000000000000000000000000000000000000000000000000000000020000000000000000000000000000000000000000000000000000000000000000000",
      "type": "0x2",
      "transactionHash": "0x655b4a04fa7b5af7db8be90d69c9e943624f4c479a7f986e2374ba7f6c7b4e43",
      "transactionIndex": "0x22",
      "blockHash": "0xfbea5468309aa0e0655cbed4cfb1796ec79b78da0599003d868b5090196d2e0f",
      "blockNumber": "0x1a831f5",
      "gasUsed": "0x6da08",
      "effectiveGasPrice": "0x870ab1a800",
      "from": "0xa0d5aa61d273688e613ba08a931f6047298f8364",
      "to": null,
      "contractAddress": "0x799c3db5118fdc6bf7e254b1662aaeb8a49ccae5",
      "root": "0x56e81f171bcc55a6ff8345e692c0f86e5b48e01b996cadc001622fb5e363b421"
    },
    {
      "status": "0x1",
      "cumulativeGasUsed": "0x17fc37",
      "logs": [
        {
          "address": "0xc991bac9a471cb8ab541ece23df603f51f84bfbe",
          "topics": [
            "0x8be0079c531659141344cd1fd0a4f28419497f9722a3daafe3b4186f6b6457e0",
            "0x0000000000000000000000000000000000000000000000000000000000000000",
            "0x000000000000000000000000a0d5aa61d273688e613ba08a931f6047298f8364"
          ],
          "data": "0x",
          "blockHash": "0xc4ce781f758c12171077de7f6a932fc8855c2b7fc6b75e49c87db04bab13fc98",
          "blockNumber": "0x1a831f8",
          "blockTimestamp": "0x691f1ca2",
          "transactionHash": "0x31126c08aaab64c0ba6d3662ccdea9bd49e99793432ab81a5163587d1a3b0639",
          "transactionIndex": "0x15",
          "logIndex": "0x6",
          "removed": false
        }
      ],
      "logsBloom": "0x00000000000000000000000000000000000000000000000000800000000000000000000000000000000000000000000000008000000000000000000000000000400000000000000000000000000000000001000000000000000000000000000000000000020000000000000000100800000000000000000000000000000000400000000000000000000000000000000000000000000000000000000000000000000000000000000000000000000000000000000000000000001000000000000000000800000000000000000000000000000000000000000000000000000020000000000000000000001000000000000000000000000000000000000000000000",
      "type": "0x2",
      "transactionHash": "0x31126c08aaab64c0ba6d3662ccdea9bd49e99793432ab81a5163587d1a3b0639",
      "transactionIndex": "0x15",
      "blockHash": "0xc4ce781f758c12171077de7f6a932fc8855c2b7fc6b75e49c87db04bab13fc98",
      "blockNumber": "0x1a831f8",
      "gasUsed": "0x142c1c",
      "effectiveGasPrice": "0x870ab1a800",
      "from": "0xa0d5aa61d273688e613ba08a931f6047298f8364",
      "to": null,
      "contractAddress": "0xc991bac9a471cb8ab541ece23df603f51f84bfbe",
      "root": "0x56e81f171bcc55a6ff8345e692c0f86e5b48e01b996cadc001622fb5e363b421"
    },
    {
      "status": "0x1",
      "cumulativeGasUsed": "0x17347e",
      "logs": [
        {
          "address": "0x6364fbda4469b6f84e3f2760ac5ac66c193b152b",
          "topics": [
            "0x8be0079c531659141344cd1fd0a4f28419497f9722a3daafe3b4186f6b6457e0",
            "0x0000000000000000000000000000000000000000000000000000000000000000",
            "0x000000000000000000000000a0d5aa61d273688e613ba08a931f6047298f8364"
          ],
          "data": "0x",
          "blockHash": "0xef3c7a7e0a4cb4afb747f8c08fe9b61a8c7d9b8d48c38d2e9fb608f567cf588d",
          "blockNumber": "0x1a831fb",
          "blockTimestamp": "0x691f1ca8",
          "transactionHash": "0x5684d0cd472a9670623f9dba482571f4ef75507c277e148d664a3506af0a998b",
          "transactionIndex": "0x3",
          "logIndex": "0x0",
          "removed": false
        }
      ],
      "logsBloom": "0x00000000000000000000000000000000000000000000000000800000000000000000000000000000000000000000000000000000000000000000000000000000400000000000000000000000000000000001000000000000000010000000000000000000020000000000000000100800000000000000000000000000000000400000000000000000000000000000000000002000000000000000000000000000000000000001000000000000000000000000000000000000001000000000000000000000000000000000000000000000000000000000000000000000000020000000000000000000000000000000000000000000000000000000000000000000",
      "type": "0x2",
      "transactionHash": "0x5684d0cd472a9670623f9dba482571f4ef75507c277e148d664a3506af0a998b",
      "transactionIndex": "0x3",
      "blockHash": "0xef3c7a7e0a4cb4afb747f8c08fe9b61a8c7d9b8d48c38d2e9fb608f567cf588d",
      "blockNumber": "0x1a831fb",
      "gasUsed": "0x167be8",
      "effectiveGasPrice": "0x870ab1a800",
      "from": "0xa0d5aa61d273688e613ba08a931f6047298f8364",
      "to": null,
      "contractAddress": "0x6364fbda4469b6f84e3f2760ac5ac66c193b152b",
      "root": "0x56e81f171bcc55a6ff8345e692c0f86e5b48e01b996cadc001622fb5e363b421"
    },
    {
      "status": "0x1",
      "cumulativeGasUsed": "0x2c54b",
      "logs": [
        {
          "address": "0x7b2ff9782b29eeed547e43260fbf8250d8527c3b",
          "topics": [
            "0x2f8788117e7eff1d82e926ec794901d17c78024a50270940304540a733656f0d",
            "0x9f2df0fed2c77648de5860a4cc508cd0818c85b8b8a1ab4ceeef8d981c8956a6",
            "0x000000000000000000000000799c3db5118fdc6bf7e254b1662aaeb8a49ccae5",
            "0x000000000000000000000000a0d5aa61d273688e613ba08a931f6047298f8364"
          ],
          "data": "0x",
          "blockHash": "0x333796efdf9c4f05f1f0df21fd231b6c95b099722417554ee0b6b10b257c804e",
          "blockNumber": "0x1a831fe",
          "blockTimestamp": "0x691f1cae",
          "transactionHash": "0x2cef6b052d04a405728934b798cccb83856c7c093344985fa3ca909bb6b83560",
          "transactionIndex": "0x0",
          "logIndex": "0x0",
          "removed": false
        },
        {
          "address": "0x7b2ff9782b29eeed547e43260fbf8250d8527c3b",
          "topics": [
            "0xbd42b6cd963a984d8cbff85acad4dd2c87a6d85ac756d16e6d2ec5ce6c8f0730",
            "0x000000000000000000000000799c3db5118fdc6bf7e254b1662aaeb8a49ccae5"
          ],
          "data": "0x",
          "blockHash": "0x333796efdf9c4f05f1f0df21fd231b6c95b099722417554ee0b6b10b257c804e",
          "blockNumber": "0x1a831fe",
          "blockTimestamp": "0x691f1cae",
          "transactionHash": "0x2cef6b052d04a405728934b798cccb83856c7c093344985fa3ca909bb6b83560",
          "transactionIndex": "0x0",
          "logIndex": "0x1",
          "removed": false
        }
      ],
      "logsBloom": "0x00000004000000000000000000000040000000000000000000000000000000000000000000000000000000000000004000000000000000000000000000000000400000000000000000000000000000000000000000000000000010000000000000000000000000000000000000100000000000000002000000000000001000000000000040000040000000000000000000000000000000000000000000000000000000000000000000000000000000000000000000000000101008000000000000000000000000000000000000000000001000000000000100000000000000000020000000000000000000000000000000000000000000000000000000000000",
      "type": "0x2",
      "transactionHash": "0x2cef6b052d04a405728934b798cccb83856c7c093344985fa3ca909bb6b83560",
      "transactionIndex": "0x0",
      "blockHash": "0x333796efdf9c4f05f1f0df21fd231b6c95b099722417554ee0b6b10b257c804e",
      "blockNumber": "0x1a831fe",
      "gasUsed": "0xc1f9",
      "effectiveGasPrice": "0x870ab1a800",
      "from": "0xa0d5aa61d273688e613ba08a931f6047298f8364",
      "to": "0x7b2ff9782b29eeed547e43260fbf8250d8527c3b",
      "contractAddress": "0x7b2ff9782b29eeed547e43260fbf8250d8527c3b",
      "root": "0x56e81f171bcc55a6ff8345e692c0f86e5b48e01b996cadc001622fb5e363b421"
    },
    {
      "status": "0x1",
      "cumulativeGasUsed": "0x2998e",
      "logs": [
        {
          "address": "0x799c3db5118fdc6bf7e254b1662aaeb8a49ccae5",
          "topics": [
            "0x19e2f74cac9e292362fe780f5b9aff112e676077da6c8117f059ec27fdf45d34",
            "0x0000000000000000000000007b2ff9782b29eeed547e43260fbf8250d8527c3b"
          ],
          "data": "0x",
          "blockHash": "0xb1ee19e5463d609ecb6af0bd6c2c33622f5a42a06e9768bf3c85f3a00600385d",
          "blockNumber": "0x1a83201",
          "blockTimestamp": "0x691f1cb4",
          "transactionHash": "0xba145c4a970259329ebf31087694faefb44c2b9e37f34d8b6e68d0d36b9e56e0",
          "transactionIndex": "0x7",
          "logIndex": "0x2",
          "removed": false
        }
      ],
      "logsBloom": "0x00000000000000010000000000000000000002000000000000000000000000000000000000000000000000000000000000001000000000000000000000010000000000000000000000000000000000000000000400000000000000000000000000000000000000000000000000000000000000000000000000000000000000000000000000000000000020000000000000000000000000000000000000000000000000000000000000000000000002000000000000000000000000000000000000000000020000000000000000000000000000000000000000002000000000000000000000000000000000000000000000000000000000000000000000000000",
      "type": "0x2",
      "transactionHash": "0xba145c4a970259329ebf31087694faefb44c2b9e37f34d8b6e68d0d36b9e56e0",
      "transactionIndex": "0x7",
      "blockHash": "0xb1ee19e5463d609ecb6af0bd6c2c33622f5a42a06e9768bf3c85f3a00600385d",
      "blockNumber": "0x1a83201",
      "gasUsed": "0xb80f",
      "effectiveGasPrice": "0x870ab1a800",
      "from": "0xa0d5aa61d273688e613ba08a931f6047298f8364",
      "to": "0x799c3db5118fdc6bf7e254b1662aaeb8a49ccae5",
      "contractAddress": "0x799c3db5118fdc6bf7e254b1662aaeb8a49ccae5",
      "root": "0x56e81f171bcc55a6ff8345e692c0f86e5b48e01b996cadc001622fb5e363b421"
    },
    {
      "status": "0x1",
      "cumulativeGasUsed": "0x2eef99",
      "logs": [
        {
          "address": "0x0387d9685ba5f06dc8f4bac93e689546bceec133",
          "topics": [
            "0x30b6cdfe01982d0e978752f156ecb4134f5bc37a7bdce67ff994d4076ec34a5d",
            "0x0000000000000000000000006364fbda4469b6f84e3f2760ac5ac66c193b152b"
          ],
          "data": "0x0000000000000000000000000000000000000000000000000000000000000001",
          "blockHash": "0x9dd91f5465d4edfcc3492d02cd9a75ba672f58ea1a0033a0fea6709431f66479",
          "blockNumber": "0x1a83203",
          "blockTimestamp": "0x691f1cb9",
          "transactionHash": "0xf7dd4c4331046d34eb8b9af99530a3a607d058d61c0622f9dab861e11dbe952c",
          "transactionIndex": "0xb",
          "logIndex": "0x3",
          "removed": false
        }
      ],
      "logsBloom": "0x0000000008000000000000000000000000000100000001000000000000000000000000000000000000000000000000000000004000000000000000000000000000000000000000000000c000000000000000000000000000000000000000000000000000000000000000000000000000000000000000000000000000000000000000000000040000000000000000000000000000000000000000000000000000000000000000000000000000000008000000000000000000000000000000000000000000000000000000000000000000000000000000000000000000000000000000000000000000000000000000000000000000400000000000000000000000",
      "type": "0x2",
      "transactionHash": "0xf7dd4c4331046d34eb8b9af99530a3a607d058d61c0622f9dab861e11dbe952c",
      "transactionIndex": "0xb",
      "blockHash": "0x9dd91f5465d4edfcc3492d02cd9a75ba672f58ea1a0033a0fea6709431f66479",
      "blockNumber": "0x1a83203",
      "gasUsed": "0xba06",
      "effectiveGasPrice": "0x870ab1a800",
      "from": "0xa0d5aa61d273688e613ba08a931f6047298f8364",
      "to": "0x0387d9685ba5f06dc8f4bac93e689546bceec133",
      "contractAddress": "0x0387d9685ba5f06dc8f4bac93e689546bceec133",
      "root": "0x56e81f171bcc55a6ff8345e692c0f86e5b48e01b996cadc001622fb5e363b421"
    },
    {
      "status": "0x1",
      "cumulativeGasUsed": "0x22c22",
      "logs": [
        {
          "address": "0x799c3db5118fdc6bf7e254b1662aaeb8a49ccae5",
          "topics": [
            "0x23d064e8743c7b6ccc2901ff570767b1a6aa908e7c01ef4af625ea7ecae965ba",
            "0x0000000000000000000000006364fbda4469b6f84e3f2760ac5ac66c193b152b"
          ],
          "data": "0x",
          "blockHash": "0xd0acaa743e52230b19ce64d44495f427ff32f9784462766891a24a2517e357cc",
          "blockNumber": "0x1a83206",
          "blockTimestamp": "0x691f1cbe",
          "transactionHash": "0xf665644023aef733769195a698ac68f33150412b166c6bedb006d9c27a96f241",
          "transactionIndex": "0xa",
          "logIndex": "0x2",
          "removed": false
        }
      ],
      "logsBloom": "0x00000000000000000000000000000000000000001000000000000000000000000008000000000000000000000000000000001000000000000000000000010000000000000000000000008000000000000020000400000000000000000000000000000000000000000000000000000000000000000000000000000000000000000000000000040000000000000000000000000000000000000000000000000000000000000000000000000000000008000000000000000000000000000000000000000000000000000000000000000000000000000000000000000000000000000000000000000000000000000000000000000000000000000000000000000000",
      "type": "0x2",
      "transactionHash": "0xf665644023aef733769195a698ac68f33150412b166c6bedb006d9c27a96f241",
      "transactionIndex": "0xa",
      "blockHash": "0xd0acaa743e52230b19ce64d44495f427ff32f9784462766891a24a2517e357cc",
      "blockNumber": "0x1a83206",
      "gasUsed": "0xb825",
      "effectiveGasPrice": "0x870ab1a800",
      "from": "0xa0d5aa61d273688e613ba08a931f6047298f8364",
      "to": "0x799c3db5118fdc6bf7e254b1662aaeb8a49ccae5",
      "contractAddress": "0x799c3db5118fdc6bf7e254b1662aaeb8a49ccae5",
      "root": "0x56e81f171bcc55a6ff8345e692c0f86e5b48e01b996cadc001622fb5e363b421"
    },
    {
      "status": "0x1",
      "cumulativeGasUsed": "0x32e0c",
      "logs": [
        {
          "address": "0xc991bac9a471cb8ab541ece23df603f51f84bfbe",
          "topics": [
            "0x23d064e8743c7b6ccc2901ff570767b1a6aa908e7c01ef4af625ea7ecae965ba",
            "0x0000000000000000000000006364fbda4469b6f84e3f2760ac5ac66c193b152b"
          ],
          "data": "0x",
          "blockHash": "0xeee57c89f867aee18a99cee33bd0dcc0a0e0bdb18e2d88936c2000a9c5a9fba3",
          "blockNumber": "0x1a83209",
          "blockTimestamp": "0x691f1cc4",
          "transactionHash": "0x9fb5a5532e9eb33c38fd7b16d987910f8f398923d98ebeac37b032c847690a4f",
          "transactionIndex": "0x0",
          "logIndex": "0x0",
          "removed": false
        }
      ],
      "logsBloom": "0x00000000000000000000000000000000000000001000000000000000000000000008000000000000000000000000000000008000000000000000000000000000000000000000000000008000000000000020000000000000000000000000000000000000000000000000000000000000000000000000000000000000000000000000000000040000000000000000000000000000000000000000000000000000000000000000000000000000000008000000000000000000000000000000000000000800000000000000000000000000000000000000000000000000000000000000000000000000001000000000000000000000000000000000000000000000",
      "type": "0x2",
      "transactionHash": "0x9fb5a5532e9eb33c38fd7b16d987910f8f398923d98ebeac37b032c847690a4f",
      "transactionIndex": "0x0",
      "blockHash": "0xeee57c89f867aee18a99cee33bd0dcc0a0e0bdb18e2d88936c2000a9c5a9fba3",
      "blockNumber": "0x1a83209",
      "gasUsed": "0xb8b0",
      "effectiveGasPrice": "0x870ab1a800",
      "from": "0xa0d5aa61d273688e613ba08a931f6047298f8364",
      "to": "0xc991bac9a471cb8ab541ece23df603f51f84bfbe",
      "contractAddress": "0xc991bac9a471cb8ab541ece23df603f51f84bfbe",
      "root": "0x56e81f171bcc55a6ff8345e692c0f86e5b48e01b996cadc001622fb5e363b421"
    },
    {
      "status": "0x1",
      "cumulativeGasUsed": "0x37de3",
      "logs": [],
      "logsBloom": "0x00000000000000000000000000000000000000000000000000000000000000000000000000000000000000000000000000000000000000000000000000000000000000000000000000000000000000000000000000000000000000000000000000000000000000000000000000000000000000000000000000000000000000000000000000000000000000000000000000000000000000000000000000000000000000000000000000000000000000000000000000000000000000000000000000000000000000000000000000000000000000000000000000000000000000000000000000000000000000000000000000000000000000000000000000000000",
      "type": "0x2",
      "transactionHash": "0x759ae4380f463f3d7fe8572dfd8f95312c1ff8ca95cde56a9a314407801f024d",
      "transactionIndex": "0x0",
      "blockHash": "0x81259e5bd6c05e455e86609554f212bba824d0597192a1aa8911518d9add4966",
      "blockNumber": "0x1a8320c",
      "gasUsed": "0x1bef8",
      "effectiveGasPrice": "0x870ab1a800",
      "from": "0xa0d5aa61d273688e613ba08a931f6047298f8364",
      "to": "0xc991bac9a471cb8ab541ece23df603f51f84bfbe",
      "contractAddress": "0xc991bac9a471cb8ab541ece23df603f51f84bfbe",
      "root": "0x56e81f171bcc55a6ff8345e692c0f86e5b48e01b996cadc001622fb5e363b421"
    },
    {
      "status": "0x1",
      "cumulativeGasUsed": "0x2b78b",
      "logs": [],
      "logsBloom": "0x00000000000000000000000000000000000000000000000000000000000000000000000000000000000000000000000000000000000000000000000000000000000000000000000000000000000000000000000000000000000000000000000000000000000000000000000000000000000000000000000000000000000000000000000000000000000000000000000000000000000000000000000000000000000000000000000000000000000000000000000000000000000000000000000000000000000000000000000000000000000000000000000000000000000000000000000000000000000000000000000000000000000000000000000000000000",
      "type": "0x2",
      "transactionHash": "0x036edc98126095928f92bd8fa95ac7e9bbd4c1b790c0c8d8f1aafcf3e6956958",
      "transactionIndex": "0xa",
      "blockHash": "0x3d9c2c70efa99b42822533c5e6e24ada23bb0711246948a3a76775baa603c973",
      "blockNumber": "0x1a8320f",
      "gasUsed": "0x1bef8",
      "effectiveGasPrice": "0x870ab1a800",
      "from": "0xa0d5aa61d273688e613ba08a931f6047298f8364",
      "to": "0xc991bac9a471cb8ab541ece23df603f51f84bfbe",
      "contractAddress": "0xc991bac9a471cb8ab541ece23df603f51f84bfbe",
      "root": "0x56e81f171bcc55a6ff8345e692c0f86e5b48e01b996cadc001622fb5e363b421"
    },
    {
      "status": "0x1",
      "cumulativeGasUsed": "0x2fcdf",
      "logs": [],
      "logsBloom": "0x00000000000000000000000000000000000000000000000000000000000000000000000000000000000000000000000000000000000000000000000000000000000000000000000000000000000000000000000000000000000000000000000000000000000000000000000000000000000000000000000000000000000000000000000000000000000000000000000000000000000000000000000000000000000000000000000000000000000000000000000000000000000000000000000000000000000000000000000000000000000000000000000000000000000000000000000000000000000000000000000000000000000000000000000000000000",
      "type": "0x2",
      "transactionHash": "0x33fb1db354bf7be16ac8816e36201fead7626c2deeeed39b7330e62e7183030a",
      "transactionIndex": "0x6",
      "blockHash": "0x90a0118b240662ae02c077fbccdd538b24f6e4b45a76e39010a4d1510c27d35c",
      "blockNumber": "0x1a83212",
      "gasUsed": "0x1bef8",
      "effectiveGasPrice": "0x870ab1a800",
      "from": "0xa0d5aa61d273688e613ba08a931f6047298f8364",
      "to": "0xc991bac9a471cb8ab541ece23df603f51f84bfbe",
      "contractAddress": "0xc991bac9a471cb8ab541ece23df603f51f84bfbe",
      "root": "0x56e81f171bcc55a6ff8345e692c0f86e5b48e01b996cadc001622fb5e363b421"
    },
    {
      "status": "0x1",
      "cumulativeGasUsed": "0x40753",
      "logs": [],
      "logsBloom": "0x00000000000000000000000000000000000000000000000000000000000000000000000000000000000000000000000000000000000000000000000000000000000000000000000000000000000000000000000000000000000000000000000000000000000000000000000000000000000000000000000000000000000000000000000000000000000000000000000000000000000000000000000000000000000000000000000000000000000000000000000000000000000000000000000000000000000000000000000000000000000000000000000000000000000000000000000000000000000000000000000000000000000000000000000000000000",
      "type": "0x2",
      "transactionHash": "0x42ad112b3dfd5193429f9e0c06a408d8f0bbfd0f6ea132a53fd314543b1ab706",
      "transactionIndex": "0x11",
      "blockHash": "0x9375bdad06fae5c3866bd8ce187a9932d35ba164de4fbc18d7c2521bc22ecce0",
      "blockNumber": "0x1a83214",
      "gasUsed": "0x1bef8",
      "effectiveGasPrice": "0x870ab1a800",
      "from": "0xa0d5aa61d273688e613ba08a931f6047298f8364",
      "to": "0xc991bac9a471cb8ab541ece23df603f51f84bfbe",
      "contractAddress": "0xc991bac9a471cb8ab541ece23df603f51f84bfbe",
      "root": "0x56e81f171bcc55a6ff8345e692c0f86e5b48e01b996cadc001622fb5e363b421"
    },
    {
      "status": "0x1",
      "cumulativeGasUsed": "0x2778e",
      "logs": [],
      "logsBloom": "0x00000000000000000000000000000000000000000000000000000000000000000000000000000000000000000000000000000000000000000000000000000000000000000000000000000000000000000000000000000000000000000000000000000000000000000000000000000000000000000000000000000000000000000000000000000000000000000000000000000000000000000000000000000000000000000000000000000000000000000000000000000000000000000000000000000000000000000000000000000000000000000000000000000000000000000000000000000000000000000000000000000000000000000000000000000000",
      "type": "0x2",
      "transactionHash": "0x690d14be98f7cf8a45f189a2adbec52421e97d918fb59e6dc8ebe6aad3d15010",
      "transactionIndex": "0x1a",
      "blockHash": "0xef1ac9fa7b7432e090a1b161d9c2bafc50f7caa31190002d7d5b64774a4a4165",
      "blockNumber": "0x1a83216",
      "gasUsed": "0x1bef8",
      "effectiveGasPrice": "0x870ab1a800",
      "from": "0xa0d5aa61d273688e613ba08a931f6047298f8364",
      "to": "0xc991bac9a471cb8ab541ece23df603f51f84bfbe",
      "contractAddress": "0xc991bac9a471cb8ab541ece23df603f51f84bfbe",
      "root": "0x56e81f171bcc55a6ff8345e692c0f86e5b48e01b996cadc001622fb5e363b421"
    },
    {
      "status": "0x1",
      "cumulativeGasUsed": "0x1bef8",
      "logs": [],
      "logsBloom": "0x00000000000000000000000000000000000000000000000000000000000000000000000000000000000000000000000000000000000000000000000000000000000000000000000000000000000000000000000000000000000000000000000000000000000000000000000000000000000000000000000000000000000000000000000000000000000000000000000000000000000000000000000000000000000000000000000000000000000000000000000000000000000000000000000000000000000000000000000000000000000000000000000000000000000000000000000000000000000000000000000000000000000000000000000000000000",
      "type": "0x2",
      "transactionHash": "0xda1a24ff620990c05b4bb668c51e76afa6d79eab880bcce9102bd7a4d5a4db22",
      "transactionIndex": "0x1",
      "blockHash": "0x8ed7e228dd0cf97db01fedaa6a8b56c67d18ea3cbd222f460253b4622daa603d",
      "blockNumber": "0x1a83219",
      "gasUsed": "0x1bef8",
      "effectiveGasPrice": "0x870ab1a800",
      "from": "0xa0d5aa61d273688e613ba08a931f6047298f8364",
      "to": "0xc991bac9a471cb8ab541ece23df603f51f84bfbe",
      "contractAddress": "0xc991bac9a471cb8ab541ece23df603f51f84bfbe",
      "root": "0x56e81f171bcc55a6ff8345e692c0f86e5b48e01b996cadc001622fb5e363b421"
    },
    {
      "status": "0x1",
      "cumulativeGasUsed": "0x2779a",
      "logs": [],
      "logsBloom": "0x00000000000000000000000000000000000000000000000000000000000000000000000000000000000000000000000000000000000000000000000000000000000000000000000000000000000000000000000000000000000000000000000000000000000000000000000000000000000000000000000000000000000000000000000000000000000000000000000000000000000000000000000000000000000000000000000000000000000000000000000000000000000000000000000000000000000000000000000000000000000000000000000000000000000000000000000000000000000000000000000000000000000000000000000000000000",
      "type": "0x2",
      "transactionHash": "0xa93ebaf8240494bb1607417e0251e94d12492c295ac3b141e792dd808761546c",
      "transactionIndex": "0x11",
      "blockHash": "0x9a095803437b38e788ede7f5496bd8b5d25fdb2f9ffed38a5101b80d33e1ca5d",
      "blockNumber": "0x1a8321b",
      "gasUsed": "0x1bef8",
      "effectiveGasPrice": "0x870ab1a800",
      "from": "0xa0d5aa61d273688e613ba08a931f6047298f8364",
      "to": "0xc991bac9a471cb8ab541ece23df603f51f84bfbe",
      "contractAddress": "0xc991bac9a471cb8ab541ece23df603f51f84bfbe",
      "root": "0x56e81f171bcc55a6ff8345e692c0f86e5b48e01b996cadc001622fb5e363b421"
    },
    {
      "status": "0x1",
      "cumulativeGasUsed": "0x27782",
      "logs": [],
      "logsBloom": "0x00000000000000000000000000000000000000000000000000000000000000000000000000000000000000000000000000000000000000000000000000000000000000000000000000000000000000000000000000000000000000000000000000000000000000000000000000000000000000000000000000000000000000000000000000000000000000000000000000000000000000000000000000000000000000000000000000000000000000000000000000000000000000000000000000000000000000000000000000000000000000000000000000000000000000000000000000000000000000000000000000000000000000000000000000000000",
      "type": "0x2",
      "transactionHash": "0x2facd2bac675e5be70c5502a2838cbca37740119585c1c26c446284c04d80874",
      "transactionIndex": "0x7",
      "blockHash": "0x4038ff39e690b873c1c97896fa174c80768e01c40b043b8e4f8f504ce061cbc4",
      "blockNumber": "0x1a8321e",
      "gasUsed": "0x1bef8",
      "effectiveGasPrice": "0x870ab1a800",
      "from": "0xa0d5aa61d273688e613ba08a931f6047298f8364",
      "to": "0xc991bac9a471cb8ab541ece23df603f51f84bfbe",
      "contractAddress": "0xc991bac9a471cb8ab541ece23df603f51f84bfbe",
      "root": "0x56e81f171bcc55a6ff8345e692c0f86e5b48e01b996cadc001622fb5e363b421"
    },
    {
      "status": "0x1",
      "cumulativeGasUsed": "0x27782",
      "logs": [],
      "logsBloom": "0x00000000000000000000000000000000000000000000000000000000000000000000000000000000000000000000000000000000000000000000000000000000000000000000000000000000000000000000000000000000000000000000000000000000000000000000000000000000000000000000000000000000000000000000000000000000000000000000000000000000000000000000000000000000000000000000000000000000000000000000000000000000000000000000000000000000000000000000000000000000000000000000000000000000000000000000000000000000000000000000000000000000000000000000000000000000",
      "type": "0x2",
      "transactionHash": "0x7b674613c3d1b5076cf95e5949e9de66e08b50eb6bdb7605165a47d54eab9bd5",
      "transactionIndex": "0x2",
      "blockHash": "0xae982f63b17ed71534e5f8d525267c625e85a3992273a9d87968c9f4f3ef9b71",
      "blockNumber": "0x1a83221",
      "gasUsed": "0x1bef8",
      "effectiveGasPrice": "0x870ab1a800",
      "from": "0xa0d5aa61d273688e613ba08a931f6047298f8364",
      "to": "0xc991bac9a471cb8ab541ece23df603f51f84bfbe",
      "contractAddress": "0xc991bac9a471cb8ab541ece23df603f51f84bfbe",
      "root": "0x56e81f171bcc55a6ff8345e692c0f86e5b48e01b996cadc001622fb5e363b421"
    },
    {
      "status": "0x1",
      "cumulativeGasUsed": "0x7910b",
      "logs": [],
      "logsBloom": "0x00000000000000000000000000000000000000000000000000000000000000000000000000000000000000000000000000000000000000000000000000000000000000000000000000000000000000000000000000000000000000000000000000000000000000000000000000000000000000000000000000000000000000000000000000000000000000000000000000000000000000000000000000000000000000000000000000000000000000000000000000000000000000000000000000000000000000000000000000000000000000000000000000000000000000000000000000000000000000000000000000000000000000000000000000000000",
      "type": "0x2",
      "transactionHash": "0x62812cfcfb208620437c81a617905e3723fa177d1a4f704800f553a3ffaa9891",
      "transactionIndex": "0x9",
      "blockHash": "0x0e563bd1be051d4a8c7adde5ed6d7c0e6e8defe0a0d3081082a089cb8b436e6b",
      "blockNumber": "0x1a83224",
      "gasUsed": "0x1bef8",
      "effectiveGasPrice": "0x870ab1a800",
      "from": "0xa0d5aa61d273688e613ba08a931f6047298f8364",
      "to": "0xc991bac9a471cb8ab541ece23df603f51f84bfbe",
      "contractAddress": "0xc991bac9a471cb8ab541ece23df603f51f84bfbe",
      "root": "0x56e81f171bcc55a6ff8345e692c0f86e5b48e01b996cadc001622fb5e363b421"
    },
    {
      "status": "0x1",
      "cumulativeGasUsed": "0x277b4",
      "logs": [
        {
          "address": "0x6364fbda4469b6f84e3f2760ac5ac66c193b152b",
          "topics": [
            "0xe1cc2f79795accf8613e535171309d9d4f70217200ea99871a5309fc48290487",
            "0x000000000000000000000000fdf033ed041ce4f70c534ff8d79ac7b05681f9bc"
          ],
          "data": "0x0000000000000000000000000000000000000000000000000000000000000001",
          "blockHash": "0x65d95b34cecafc5ec7d0c02c84769151dfca0139ea3153495ec15fcc0c3cbad3",
          "blockNumber": "0x1a83227",
          "blockTimestamp": "0x691f1d00",
          "transactionHash": "0xcdc7316c07a53998a5a34f74eac0f64172e268c761b5ca82a21d600dd148d786",
          "transactionIndex": "0x2",
          "logIndex": "0x1",
          "removed": false
        }
      ],
      "logsBloom": "0x00100000000000000000000000000000000000000002000000000000000000000000000000000000000000000000000000000000000000000000000000000000000000000000000000000000000000000000000000000000000010000000000000000000000000000000000000000000000000000000000000000000000000000000000000000000000000000000000000002000000000000000100000000000000000000001000000000000000000000000000000000000000000000000000000000000000000000000000000000000000000000000004000000000000000000000000000000000000000000000000000000010000002000000000000000000",
      "type": "0x2",
      "transactionHash": "0xcdc7316c07a53998a5a34f74eac0f64172e268c761b5ca82a21d600dd148d786",
      "transactionIndex": "0x2",
      "blockHash": "0x65d95b34cecafc5ec7d0c02c84769151dfca0139ea3153495ec15fcc0c3cbad3",
      "blockNumber": "0x1a83227",
      "gasUsed": "0xbae3",
      "effectiveGasPrice": "0x870ab1a800",
      "from": "0xa0d5aa61d273688e613ba08a931f6047298f8364",
      "to": "0x6364fbda4469b6f84e3f2760ac5ac66c193b152b",
      "contractAddress": "0x6364fbda4469b6f84e3f2760ac5ac66c193b152b",
      "root": "0x56e81f171bcc55a6ff8345e692c0f86e5b48e01b996cadc001622fb5e363b421"
    }
  ],
  "libraries": [],
  "pending": [],
  "returns": {},
  "timestamp": 1763646724405,
  "chain": 296,
  "commit": null
}